{
  "contracts/PerptualsVaultOptimismPriceFeed.sol": {
    "PerptualsVaultOptimismPriceFeed": {
      "abi": [
        {
          "inputs": [
            {
              "internalType": "contract IVault",
              "name": "exchangeVault",
              "type": "address"
            },
            {
              "internalType": "address",
              "name": "_chainlinkSequencesStatusOracle",
              "type": "address"
            }
          ],
          "stateMutability": "nonpayable",
          "type": "constructor"
        },
        {
          "inputs": [],
          "name": "BASIS_POINTS_DIVISOR",
          "outputs": [
            {
              "internalType": "uint256",
              "name": "",
              "type": "uint256"
            }
          ],
          "stateMutability": "view",
          "type": "function"
        },
        {
          "inputs": [],
          "name": "CHAINLINK_SEQUENCER_GRACE_PERIOD_TIME",
          "outputs": [
            {
              "internalType": "uint256",
              "name": "",
              "type": "uint256"
            }
          ],
          "stateMutability": "view",
          "type": "function"
        },
        {
          "inputs": [],
          "name": "MAX_ADJUSTMENT_BASIS_POINTS",
          "outputs": [
            {
              "internalType": "uint256",
              "name": "",
              "type": "uint256"
            }
          ],
          "stateMutability": "view",
          "type": "function"
        },
        {
          "inputs": [],
          "name": "MAX_ADJUSTMENT_INTERVAL",
          "outputs": [
            {
              "internalType": "uint256",
              "name": "",
              "type": "uint256"
            }
          ],
          "stateMutability": "view",
          "type": "function"
        },
        {
          "inputs": [],
          "name": "MAX_SPREAD_BASIS_POINTS",
          "outputs": [
            {
              "internalType": "uint256",
              "name": "",
              "type": "uint256"
            }
          ],
          "stateMutability": "view",
          "type": "function"
        },
        {
          "inputs": [],
          "name": "ONE_USD",
          "outputs": [
            {
              "internalType": "uint256",
              "name": "",
              "type": "uint256"
            }
          ],
          "stateMutability": "view",
          "type": "function"
        },
        {
          "inputs": [],
          "name": "PRICE_PRECISION",
          "outputs": [
            {
              "internalType": "uint256",
              "name": "",
              "type": "uint256"
            }
          ],
          "stateMutability": "view",
          "type": "function"
        },
        {
          "inputs": [
            {
              "internalType": "address",
              "name": "",
              "type": "address"
            }
          ],
          "name": "adjustmentBasisPoints",
          "outputs": [
            {
              "internalType": "uint256",
              "name": "",
              "type": "uint256"
            }
          ],
          "stateMutability": "view",
          "type": "function"
        },
        {
          "inputs": [],
          "name": "chainlinkSequencesStatusOracle",
          "outputs": [
            {
              "internalType": "address",
              "name": "",
              "type": "address"
            }
          ],
          "stateMutability": "view",
          "type": "function"
        },
        {
          "inputs": [
            {
              "internalType": "bytes4",
              "name": "selector",
              "type": "bytes4"
            }
          ],
          "name": "getActionId",
          "outputs": [
            {
              "internalType": "bytes32",
              "name": "",
              "type": "bytes32"
            }
          ],
          "stateMutability": "view",
          "type": "function"
        },
        {
          "inputs": [
            {
              "internalType": "address",
              "name": "_token",
              "type": "address"
            }
          ],
          "name": "getAmmPrice",
          "outputs": [
            {
              "internalType": "uint256",
              "name": "",
              "type": "uint256"
            }
          ],
          "stateMutability": "pure",
          "type": "function"
        },
        {
          "inputs": [
            {
              "internalType": "address",
              "name": "_token",
              "type": "address"
            },
            {
              "internalType": "bool",
              "name": "_maximise",
              "type": "bool"
            },
            {
              "internalType": "uint256",
              "name": "_primaryPrice",
              "type": "uint256"
            }
          ],
          "name": "getAmmPriceV2",
          "outputs": [
            {
              "internalType": "uint256",
              "name": "",
              "type": "uint256"
            }
          ],
          "stateMutability": "view",
          "type": "function"
        },
        {
          "inputs": [],
          "name": "getExchangeVault",
          "outputs": [
            {
              "internalType": "contract IVault",
              "name": "",
              "type": "address"
            }
          ],
          "stateMutability": "view",
          "type": "function"
        },
        {
          "inputs": [
            {
              "internalType": "address",
              "name": "_pair",
              "type": "address"
            },
            {
              "internalType": "bool",
              "name": "_divByReserve0",
              "type": "bool"
            }
          ],
          "name": "getPairPrice",
          "outputs": [
            {
              "internalType": "uint256",
              "name": "",
              "type": "uint256"
            }
          ],
          "stateMutability": "view",
          "type": "function"
        },
        {
          "inputs": [
            {
              "internalType": "address",
              "name": "_token",
              "type": "address"
            },
            {
              "internalType": "bool",
              "name": "_maximise",
              "type": "bool"
            },
            {
              "internalType": "bool",
              "name": "_includeAmmPrice",
              "type": "bool"
            },
            {
              "internalType": "bool",
              "name": "",
              "type": "bool"
            }
          ],
          "name": "getPrice",
          "outputs": [
            {
              "internalType": "uint256",
              "name": "",
              "type": "uint256"
            }
          ],
          "stateMutability": "view",
          "type": "function"
        },
        {
          "inputs": [
            {
              "internalType": "address",
              "name": "_token",
              "type": "address"
            },
            {
              "internalType": "bool",
              "name": "_maximise",
              "type": "bool"
            },
            {
              "internalType": "bool",
              "name": "_includeAmmPrice",
              "type": "bool"
            }
          ],
          "name": "getPriceV1",
          "outputs": [
            {
              "internalType": "uint256",
              "name": "",
              "type": "uint256"
            }
          ],
          "stateMutability": "view",
          "type": "function"
        },
        {
          "inputs": [
            {
              "internalType": "address",
              "name": "_token",
              "type": "address"
            },
            {
              "internalType": "bool",
              "name": "_maximise",
              "type": "bool"
            },
            {
              "internalType": "bool",
              "name": "_includeAmmPrice",
              "type": "bool"
            }
          ],
          "name": "getPriceV2",
          "outputs": [
            {
              "internalType": "uint256",
              "name": "",
              "type": "uint256"
            }
          ],
          "stateMutability": "view",
          "type": "function"
        },
        {
          "inputs": [
            {
              "internalType": "address",
              "name": "_token",
              "type": "address"
            },
            {
              "internalType": "bool",
              "name": "_maximise",
              "type": "bool"
            }
          ],
          "name": "getPrimaryPrice",
          "outputs": [
            {
              "internalType": "uint256",
              "name": "",
              "type": "uint256"
            }
          ],
          "stateMutability": "view",
          "type": "function"
        },
        {
          "inputs": [
            {
              "internalType": "address",
              "name": "_token",
              "type": "address"
            },
            {
              "internalType": "uint256",
              "name": "_referencePrice",
              "type": "uint256"
            },
            {
              "internalType": "bool",
              "name": "_maximise",
              "type": "bool"
            }
          ],
          "name": "getSecondaryPrice",
          "outputs": [
            {
              "internalType": "uint256",
              "name": "",
              "type": "uint256"
            }
          ],
          "stateMutability": "view",
          "type": "function"
        },
        {
          "inputs": [
            {
              "internalType": "address",
              "name": "",
              "type": "address"
            }
          ],
          "name": "isAdjustmentAdditive",
          "outputs": [
            {
              "internalType": "bool",
              "name": "",
              "type": "bool"
            }
          ],
          "stateMutability": "view",
          "type": "function"
        },
        {
          "inputs": [
            {
              "internalType": "address",
              "name": "",
              "type": "address"
            }
          ],
          "name": "lastAdjustmentTimings",
          "outputs": [
            {
              "internalType": "uint256",
              "name": "",
              "type": "uint256"
            }
          ],
          "stateMutability": "view",
          "type": "function"
        },
        {
          "inputs": [
            {
              "internalType": "address",
              "name": "",
              "type": "address"
            }
          ],
          "name": "priceDecimals",
          "outputs": [
            {
              "internalType": "uint256",
              "name": "",
              "type": "uint256"
            }
          ],
          "stateMutability": "view",
          "type": "function"
        },
        {
          "inputs": [
            {
              "internalType": "address",
              "name": "",
              "type": "address"
            }
          ],
          "name": "priceFeeds",
          "outputs": [
            {
              "internalType": "address",
              "name": "",
              "type": "address"
            }
          ],
          "stateMutability": "view",
          "type": "function"
        },
        {
          "inputs": [],
          "name": "secondaryPriceFeed",
          "outputs": [
            {
              "internalType": "address",
              "name": "",
              "type": "address"
            }
          ],
          "stateMutability": "view",
          "type": "function"
        },
        {
          "inputs": [
            {
              "internalType": "address",
              "name": "_token",
              "type": "address"
            },
            {
              "internalType": "bool",
              "name": "_isAdditive",
              "type": "bool"
            },
            {
              "internalType": "uint256",
              "name": "_adjustmentBps",
              "type": "uint256"
            }
          ],
          "name": "setAdjustment",
          "outputs": [],
          "stateMutability": "nonpayable",
          "type": "function"
        },
        {
          "inputs": [
            {
              "internalType": "address",
              "name": "_chainlinkSequencesStatusOracle",
              "type": "address"
            }
          ],
          "name": "setChainlinkSequencesStatusOracle",
          "outputs": [],
          "stateMutability": "nonpayable",
          "type": "function"
        },
        {
          "inputs": [
            {
              "internalType": "bool",
              "name": "_favorPrimaryPrice",
              "type": "bool"
            }
          ],
          "name": "setFavorPrimaryPrice",
          "outputs": [],
          "stateMutability": "nonpayable",
          "type": "function"
        },
        {
          "inputs": [
            {
              "internalType": "bool",
              "name": "_isEnabled",
              "type": "bool"
            }
          ],
          "name": "setIsAmmEnabled",
          "outputs": [],
          "stateMutability": "nonpayable",
          "type": "function"
        },
        {
          "inputs": [
            {
              "internalType": "bool",
              "name": "_isEnabled",
              "type": "bool"
            }
          ],
          "name": "setIsSecondaryPriceEnabled",
          "outputs": [],
          "stateMutability": "nonpayable",
          "type": "function"
        },
        {
          "inputs": [
            {
              "internalType": "uint256",
              "name": "_maxStrictPriceDeviation",
              "type": "uint256"
            }
          ],
          "name": "setMaxStrictPriceDeviation",
          "outputs": [],
          "stateMutability": "nonpayable",
          "type": "function"
        },
        {
          "inputs": [
            {
              "internalType": "uint256",
              "name": "_priceSampleSpace",
              "type": "uint256"
            }
          ],
          "name": "setPriceSampleSpace",
          "outputs": [],
          "stateMutability": "nonpayable",
          "type": "function"
        },
        {
          "inputs": [
            {
              "internalType": "address",
              "name": "_secondaryPriceFeed",
              "type": "address"
            }
          ],
          "name": "setSecondaryPriceFeed",
          "outputs": [],
          "stateMutability": "nonpayable",
          "type": "function"
        },
        {
          "inputs": [
            {
              "internalType": "address",
              "name": "_token",
              "type": "address"
            },
            {
              "internalType": "uint256",
              "name": "_spreadBasisPoints",
              "type": "uint256"
            }
          ],
          "name": "setSpreadBasisPoints",
          "outputs": [],
          "stateMutability": "nonpayable",
          "type": "function"
        },
        {
          "inputs": [
            {
              "internalType": "uint256",
              "name": "_spreadThresholdBasisPoints",
              "type": "uint256"
            }
          ],
          "name": "setSpreadThresholdBasisPoints",
          "outputs": [],
          "stateMutability": "nonpayable",
          "type": "function"
        },
        {
          "inputs": [
            {
              "internalType": "address",
              "name": "_token",
              "type": "address"
            },
            {
              "internalType": "address",
              "name": "_priceFeed",
              "type": "address"
            },
            {
              "internalType": "uint256",
              "name": "_priceDecimals",
              "type": "uint256"
            },
            {
              "internalType": "bool",
              "name": "_isStrictStable",
              "type": "bool"
            }
          ],
          "name": "setTokenConfig",
          "outputs": [],
          "stateMutability": "nonpayable",
          "type": "function"
        },
        {
          "inputs": [
            {
              "internalType": "bool",
              "name": "_useV2Pricing",
              "type": "bool"
            }
          ],
          "name": "setUseV2Pricing",
          "outputs": [],
          "stateMutability": "nonpayable",
          "type": "function"
        },
        {
          "inputs": [],
          "name": "slot0",
          "outputs": [
            {
              "internalType": "bool",
              "name": "isAmmEnabled",
              "type": "bool"
            },
            {
              "internalType": "bool",
              "name": "isSecondaryPriceEnabled",
              "type": "bool"
            },
            {
              "internalType": "bool",
              "name": "useV2Pricing",
              "type": "bool"
            },
            {
              "internalType": "bool",
              "name": "favorPrimaryPrice",
              "type": "bool"
            },
            {
              "internalType": "uint8",
              "name": "priceSampleSpace",
              "type": "uint8"
            },
            {
              "internalType": "uint16",
              "name": "spreadThresholdBasisPoints",
              "type": "uint16"
            },
            {
              "internalType": "uint160",
              "name": "maxStrictPriceDeviation",
              "type": "uint160"
            }
          ],
          "stateMutability": "view",
          "type": "function"
        },
        {
          "inputs": [
            {
              "internalType": "address",
              "name": "",
              "type": "address"
            }
          ],
          "name": "spreadBasisPoints",
          "outputs": [
            {
              "internalType": "uint256",
              "name": "",
              "type": "uint256"
            }
          ],
          "stateMutability": "view",
          "type": "function"
        },
        {
          "inputs": [
            {
              "internalType": "address",
              "name": "",
              "type": "address"
            }
          ],
          "name": "strictStableTokens",
          "outputs": [
            {
              "internalType": "bool",
              "name": "",
              "type": "bool"
            }
          ],
          "stateMutability": "view",
          "type": "function"
        }
      ],
      "evm": {
        "bytecode": {
          "linkReferences": {},
          "object": "60c060405234801561001057600080fd5b50604051611da4380380611da48339818101604052604081101561003357600080fd5b508051602091820151306080908152606092831b6001600160601b03191660a0908152600180546001600160a01b0319166001600160a01b039094169390931783556040805160e0810182526000808252968101949094528301859052828401859052600383830152601e8382015260c0909201849052835461010061ffff199091161764ffffff000019166403000000001761ffff60281b1916651e000000000017600160381b600160d81b03191684555190519092911c90611c9a9061010a9039806117505250806113975250611c9a6000f3fe608060405234801561001057600080fd5b50600436106102ad5760003560e01c80638b86616c1161017b578063b40ebd09116100d8578063cefe0f211161008c578063d9b0dd2c11610071578063d9b0dd2c146108d7578063eb1c92a91461090a578063fd34ec4014610929576102ad565b8063cefe0f2114610863578063d694376c14610896576102ad565b8063b8f61105116100bd578063b8f61105146107f5578063c2138d8c14610828578063c78f3d0a1461085b576102ad565b8063b40ebd09146107d0578063b731dd87146107d8576102ad565b80639b8893801161012f578063a27ea38611610114578063a27ea38614610721578063a2ad7b9314610754578063b02a2de41461078f576102ad565b80639b889380146106b55780639dcb511a146106ee576102ad565b80639917dc74116101605780639917dc741461065b5780639a0a66351461067a5780639b18dc47146106ad576102ad565b80638b86616c1461065357806395082d251461051e576102ad565b80634a4b1f4f116102295780636ce8a44b116101dd578063717cfe7a116101c2578063717cfe7a1461059e578063732391b4146105d1578063851c1bb314610614576102ad565b80636ce8a44b146105265780636eec77791461056d576102ad565b806356c8c2c11161020e57806356c8c2c1146104c4578063604f37e9146104ff57806367781c0e1461051e576102ad565b80634a4b1f4f146104715780634b9ade4714610479576102ad565b80632fc3a70a116102805780633d949c5f116102655780633d949c5f146103ba5780633eba8d36146103fd57806348cac2771461043e576102ad565b80632fc3a70a146103105780633850c7bd1461035b576102ad565b80630957aed9146102b2578063126082cf146102cc5780632fa03b8f146102d45780632fbfe3d3146102f3575b600080fd5b6102ba610948565b60408051918252519081900360200190f35b6102ba61094d565b6102f1600480360360208110156102ea57600080fd5b5035610953565b005b6102f16004803603602081101561030957600080fd5b50356109a6565b6102ba6004803603608081101561032657600080fd5b5073ffffffffffffffffffffffffffffffffffffffff8135169060208101351515906040810135151590606001351515610a00565b610363610ad5565b604080519715158852951515602088015293151586860152911515606086015260ff16608085015261ffff1660a084015273ffffffffffffffffffffffffffffffffffffffff1660c0830152519081900360e00190f35b6102ba600480360360608110156103d057600080fd5b5073ffffffffffffffffffffffffffffffffffffffff813516906020810135151590604001351515610b35565b6102ba6004803603606081101561041357600080fd5b5073ffffffffffffffffffffffffffffffffffffffff81351690602081013590604001351515610d43565b6102ba6004803603602081101561045457600080fd5b503573ffffffffffffffffffffffffffffffffffffffff16610e20565b6102ba610e32565b6102f16004803603608081101561048f57600080fd5b5073ffffffffffffffffffffffffffffffffffffffff8135811691602081013590911690604081013590606001351515610e37565b6102ba600480360360408110156104da57600080fd5b5073ffffffffffffffffffffffffffffffffffffffff81351690602001351515610ed7565b6102f16004803603602081101561051557600080fd5b503515156112b0565b6102ba6112f1565b6105596004803603602081101561053c57600080fd5b503573ffffffffffffffffffffffffffffffffffffffff16611302565b604080519115158252519081900360200190f35b610575611317565b6040805173ffffffffffffffffffffffffffffffffffffffff9092168252519081900360200190f35b6102ba600480360360208110156105b457600080fd5b503573ffffffffffffffffffffffffffffffffffffffff16611333565b6102ba600480360360608110156105e757600080fd5b5073ffffffffffffffffffffffffffffffffffffffff813516906020810135151590604001351515611345565b6102ba6004803603602081101561062a57600080fd5b50357fffffffff0000000000000000000000000000000000000000000000000000000016611391565b610575611402565b6102f16004803603602081101561067157600080fd5b5035151561141e565b6102f16004803603602081101561069057600080fd5b503573ffffffffffffffffffffffffffffffffffffffff16611457565b6102ba6114a6565b6102f1600480360360408110156106cb57600080fd5b5073ffffffffffffffffffffffffffffffffffffffff81351690602001356114ac565b6105756004803603602081101561070457600080fd5b503573ffffffffffffffffffffffffffffffffffffffff166114ed565b6102ba6004803603602081101561073757600080fd5b503573ffffffffffffffffffffffffffffffffffffffff16611515565b6102ba6004803603604081101561076a57600080fd5b5073ffffffffffffffffffffffffffffffffffffffff81351690602001351515611527565b6102ba600480360360608110156107a557600080fd5b5073ffffffffffffffffffffffffffffffffffffffff81351690602081013515159060400135611618565b6102ba6116e7565b6102f1600480360360208110156107ee57600080fd5b50356116ed565b6105596004803603602081101561080b57600080fd5b503573ffffffffffffffffffffffffffffffffffffffff16611733565b6102ba6004803603602081101561083e57600080fd5b503573ffffffffffffffffffffffffffffffffffffffff16611748565b61057561174e565b6102ba6004803603602081101561087957600080fd5b503573ffffffffffffffffffffffffffffffffffffffff16611772565b6102f1600480360360608110156108ac57600080fd5b5073ffffffffffffffffffffffffffffffffffffffff81351690602081013515159060400135611784565b6102f1600480360360208110156108ed57600080fd5b503573ffffffffffffffffffffffffffffffffffffffff1661184c565b6102f16004803603602081101561092057600080fd5b5035151561189b565b6102f16004803603602081101561093f57600080fd5b503515156118da565b603281565b61271081565b61095b61191a565b61096a6000821161296b611963565b6000805460ff909216640100000000027fffffffffffffffffffffffffffffffffffffffffffffffffffffff00ffffffff909216919091179055565b6109ae61191a565b6000805473ffffffffffffffffffffffffffffffffffffffff909216670100000000000000027fffffffffff0000000000000000000000000000000000000000ffffffffffffff909216919091179055565b60008054819062010000900460ff16610a2357610a1e868686610b35565b610a2e565b610a2e868686611345565b73ffffffffffffffffffffffffffffffffffffffff87166000908152600760205260409020549091508015610acb5773ffffffffffffffffffffffffffffffffffffffff871660009081526008602052604090205460ff168015610ab357610aac612710610aa6610a9f8286611975565b8690611987565b906119af565b9250610ac9565b610ac6612710610aa6610a9f82866119bd565b92505b505b5095945050505050565b60005460ff808216916101008104821691620100008204811691630100000081048216916401000000008204169065010000000000810461ffff1690670100000000000000900473ffffffffffffffffffffffffffffffffffffffff1687565b600080610b428585610ed7565b9050828015610b53575060005460ff165b15610b98576000610b6386611748565b90508015610b9657848015610b7757508181115b15610b80578091505b84158015610b8d57508181105b15610b96578091505b505b600054610100900460ff1615610bb657610bb3858286610d43565b90505b73ffffffffffffffffffffffffffffffffffffffff851660009081526006602052604090205460ff1615610cd55760006c0c9f2c9cd04674edea400000008211610c1657610c116c0c9f2c9cd04674edea40000000836119bd565b610c2d565b610c2d826c0c9f2c9cd04674edea400000006119bd565b600054909150670100000000000000900473ffffffffffffffffffffffffffffffffffffffff168111610c71576c0c9f2c9cd04674edea4000000092505050610d3c565b848015610c8a57506c0c9f2c9cd04674edea4000000082115b15610c9757509050610d3c565b84158015610cb157506c0c9f2c9cd04674edea4000000082105b15610cbe57509050610d3c565b6c0c9f2c9cd04674edea4000000092505050610d3c565b73ffffffffffffffffffffffffffffffffffffffff85166000908152600560205260409020548415610d2457610d1b612710610aa6610d148285611975565b8590611987565b92505050610d3c565b610d37612710610aa6610d1482856119bd565b925050505b9392505050565b60025460009073ffffffffffffffffffffffffffffffffffffffff16610d6a575081610d3c565b600254604080517f7fece36800000000000000000000000000000000000000000000000000000000815273ffffffffffffffffffffffffffffffffffffffff878116600483015260248201879052851515604483015291519190921691637fece368916064808301926020929190829003018186803b158015610dec57600080fd5b505afa158015610e00573d6000803e3d6000fd5b505050506040513d6020811015610e1657600080fd5b5051949350505050565b60076020526000908152604090205481565b601481565b610e3f61191a565b73ffffffffffffffffffffffffffffffffffffffff938416600090815260036020908152604080832080547fffffffffffffffffffffffff0000000000000000000000000000000000000000169690971695909517909555600485528381209290925560069093522080547fffffffffffffffffffffffffffffffffffffffffffffffffffffffffffffff0016911515919091179055565b73ffffffffffffffffffffffffffffffffffffffff808316600090815260036020526040812054909116610f0f81151561296c611963565b60015473ffffffffffffffffffffffffffffffffffffffff161561100257600080600160009054906101000a900473ffffffffffffffffffffffffffffffffffffffff1673ffffffffffffffffffffffffffffffffffffffff1663feaf968c6040518163ffffffff1660e01b815260040160a06040518083038186803b158015610f9857600080fd5b505afa158015610fac573d6000803e3d6000fd5b505050506040513d60a0811015610fc257600080fd5b5060208101516040909101519092509050811580610fe557610fe561296f6119cb565b42829003610e108111610ffd57610ffd6129706119cb565b505050505b60008190506000808273ffffffffffffffffffffffffffffffffffffffff1663668a0f026040518163ffffffff1660e01b815260040160206040518083038186803b15801561105057600080fd5b505afa158015611064573d6000803e3d6000fd5b505050506040513d602081101561107a57600080fd5b5051905060005b600054640100000000900460ff1669ffffffffffffffffffff8216101561124d578069ffffffffffffffffffff168269ffffffffffffffffffff16116110c65761124d565b600069ffffffffffffffffffff82166111655760008573ffffffffffffffffffffffffffffffffffffffff166350d25bcd6040518163ffffffff1660e01b815260040160206040518083038186803b15801561112157600080fd5b505afa158015611135573d6000803e3d6000fd5b505050506040513d602081101561114b57600080fd5b5051905061115e6000821361296d611963565b9050611209565b60008573ffffffffffffffffffffffffffffffffffffffff16639a6fc8f58486036040518263ffffffff1660e01b8152600401808269ffffffffffffffffffff16815260200191505060a06040518083038186803b1580156111c657600080fd5b505afa1580156111da573d6000803e3d6000fd5b505050506040513d60a08110156111f057600080fd5b506020015190506112066000821361296d611963565b90505b83611215579250611245565b87801561122157508381115b1561122d579250611245565b8715801561123a57508381105b15611243578093505b505b600101611081565b5061125d60008311612971611963565b73ffffffffffffffffffffffffffffffffffffffff87166000908152600460205260409020546112a2600a82900a610aa6856c0c9f2c9cd04674edea40000000611987565b955050505050505b92915050565b6112b861191a565b600080549115156301000000027fffffffffffffffffffffffffffffffffffffffffffffffffffffffff00ffffff909216919091179055565b6c0c9f2c9cd04674edea4000000081565b60086020526000908152604090205460ff1681565b60015473ffffffffffffffffffffffffffffffffffffffff1681565b60096020526000908152604090205481565b6000806113528585610ed7565b9050828015611363575060005460ff165b15610b9857611373858583611618565b905060005460ff6101009091041615610bb657610bb3858286610d43565b604080517f00000000000000000000000000000000000000000000000000000000000000006020808301919091527fffffffff000000000000000000000000000000000000000000000000000000008416828401528251602481840301815260449092019092528051910120919050565b60025473ffffffffffffffffffffffffffffffffffffffff1681565b61142661191a565b600080547fffffffffffffffffffffffffffffffffffffffffffffffffffffffffffffff0016911515919091179055565b61145f61191a565b600280547fffffffffffffffffffffffff00000000000000000000000000000000000000001673ffffffffffffffffffffffffffffffffffffffff92909216919091179055565b611c2081565b6114b461191a565b6114c4603282111561296a611963565b73ffffffffffffffffffffffffffffffffffffffff909116600090815260056020526040902055565b60036020526000908152604090205473ffffffffffffffffffffffffffffffffffffffff1681565b60056020526000908152604090205481565b60008060008473ffffffffffffffffffffffffffffffffffffffff16630902f1ac6040518163ffffffff1660e01b815260040160606040518083038186803b15801561157257600080fd5b505afa158015611586573d6000803e3d6000fd5b505050506040513d606081101561159c57600080fd5b508051602090910151909250905083156115e457816115c0576000925050506112aa565b6115db82610aa6836c0c9f2c9cd04674edea40000000611987565b925050506112aa565b806115f4576000925050506112aa565b61160f81610aa6846c0c9f2c9cd04674edea40000000611987565b95945050505050565b60008061162485611748565b9050806116345782915050610d3c565b600083821161164c5761164784836119bd565b611656565b61165682856119bd565b60005490915061167490859065010000000000900461ffff16611987565b61168082612710611987565b10156116aa576000546301000000900460ff16156116a2578392505050610d3c565b509050610d3c565b8480156116b657508382115b156116c357509050610d3c565b841580156116d057508382105b156116dd57509050610d3c565b5091949350505050565b610e1081565b6116f561191a565b6000805461ffff90921665010000000000027fffffffffffffffffffffffffffffffffffffffffffffffffff0000ffffffffff909216919091179055565b60066020526000908152604090205460ff1681565b50600090565b7f000000000000000000000000000000000000000000000000000000000000000090565b60046020526000908152604090205481565b61178c61191a565b73ffffffffffffffffffffffffffffffffffffffff83166000908152600960205260409020546117cd9042906117c490611c20611975565b1061296e611963565b6117dd6014821115612969611963565b73ffffffffffffffffffffffffffffffffffffffff92909216600090815260086020908152604080832080547fffffffffffffffffffffffffffffffffffffffffffffffffffffffffffffff001694151594909417909355600781528282209390935560099092529020429055565b61185461191a565b600180547fffffffffffffffffffffffff00000000000000000000000000000000000000001673ffffffffffffffffffffffffffffffffffffffff92909216919091179055565b6118a361191a565b60008054911515610100027fffffffffffffffffffffffffffffffffffffffffffffffffffffffffffff00ff909216919091179055565b6118e261191a565b6000805491151562010000027fffffffffffffffffffffffffffffffffffffffffffffffffffffffffff00ffff909216919091179055565b60006119496000357fffffffff0000000000000000000000000000000000000000000000000000000016611391565b90506119606119588233611a66565b610191611b2f565b50565b8161197157611971816119cb565b5050565b6000828201610d3c8482101583611b2f565b600082611996575060006112aa565b828202610d3c838583816119a657fe5b04146003611b2f565b6000610d3c83836004611b3d565b6000610d3c83836001611b61565b6030600a820601600a820491506030600a830601600a830492506030600a840601600a840493506030600a850601600a850494506030600a8606018060201b8260181b8460101b8660081b8801010101664b594f230000000160b81b9450505050507f08c379a00000000000000000000000000000000000000000000000000000000060005260206004526009602452806044525060646000fd5b6000611a70611b77565b73ffffffffffffffffffffffffffffffffffffffff16639be2a8848484306040518463ffffffff1660e01b8152600401808481526020018373ffffffffffffffffffffffffffffffffffffffff1681526020018273ffffffffffffffffffffffffffffffffffffffff168152602001935050505060206040518083038186803b158015611afc57600080fd5b505afa158015611b10573d6000803e3d6000fd5b505050506040513d6020811015611b2657600080fd5b50519392505050565b816119715761197181611bf7565b6000611b4c6000841183611b2f565b6000838581611b5757fe5b0495945050505050565b6000611b708484111583611b2f565b5050900390565b6000611b8161174e565b73ffffffffffffffffffffffffffffffffffffffff1663aaabadc56040518163ffffffff1660e01b815260040160206040518083038186803b158015611bc657600080fd5b505afa158015611bda573d6000803e3d6000fd5b505050506040513d6020811015611bf057600080fd5b5051905090565b7f08c379a0000000000000000000000000000000000000000000000000000000006000908152602060045260076024526642414c23000030600a808404818106603090810160081b95839006959095019082900491820690940160101b939093010160c81b604452606490fdfea264697066735822122093ca6c6cc3acec74ff8e6f9b75667b235effb229c0bc3eefbff6afc21176199b64736f6c63430007060033",
          "opcodes": "PUSH1 0xC0 PUSH1 0x40 MSTORE CALLVALUE DUP1 ISZERO PUSH2 0x10 JUMPI PUSH1 0x0 DUP1 REVERT JUMPDEST POP PUSH1 0x40 MLOAD PUSH2 0x1DA4 CODESIZE SUB DUP1 PUSH2 0x1DA4 DUP4 CODECOPY DUP2 DUP2 ADD PUSH1 0x40 MSTORE PUSH1 0x40 DUP2 LT ISZERO PUSH2 0x33 JUMPI PUSH1 0x0 DUP1 REVERT JUMPDEST POP DUP1 MLOAD PUSH1 0x20 SWAP2 DUP3 ADD MLOAD ADDRESS PUSH1 0x80 SWAP1 DUP2 MSTORE PUSH1 0x60 SWAP3 DUP4 SHL PUSH1 0x1 PUSH1 0x1 PUSH1 0x60 SHL SUB NOT AND PUSH1 0xA0 SWAP1 DUP2 MSTORE PUSH1 0x1 DUP1 SLOAD PUSH1 0x1 PUSH1 0x1 PUSH1 0xA0 SHL SUB NOT AND PUSH1 0x1 PUSH1 0x1 PUSH1 0xA0 SHL SUB SWAP1 SWAP5 AND SWAP4 SWAP1 SWAP4 OR DUP4 SSTORE PUSH1 0x40 DUP1 MLOAD PUSH1 0xE0 DUP2 ADD DUP3 MSTORE PUSH1 0x0 DUP1 DUP3 MSTORE SWAP7 DUP2 ADD SWAP5 SWAP1 SWAP5 MSTORE DUP4 ADD DUP6 SWAP1 MSTORE DUP3 DUP5 ADD DUP6 SWAP1 MSTORE PUSH1 0x3 DUP4 DUP4 ADD MSTORE PUSH1 0x1E DUP4 DUP3 ADD MSTORE PUSH1 0xC0 SWAP1 SWAP3 ADD DUP5 SWAP1 MSTORE DUP4 SLOAD PUSH2 0x100 PUSH2 0xFFFF NOT SWAP1 SWAP2 AND OR PUSH5 0xFFFFFF0000 NOT AND PUSH5 0x300000000 OR PUSH2 0xFFFF PUSH1 0x28 SHL NOT AND PUSH6 0x1E0000000000 OR PUSH1 0x1 PUSH1 0x38 SHL PUSH1 0x1 PUSH1 0xD8 SHL SUB NOT AND DUP5 SSTORE MLOAD SWAP1 MLOAD SWAP1 SWAP3 SWAP2 SHR SWAP1 PUSH2 0x1C9A SWAP1 PUSH2 0x10A SWAP1 CODECOPY DUP1 PUSH2 0x1750 MSTORE POP DUP1 PUSH2 0x1397 MSTORE POP PUSH2 0x1C9A PUSH1 0x0 RETURN INVALID PUSH1 0x80 PUSH1 0x40 MSTORE CALLVALUE DUP1 ISZERO PUSH2 0x10 JUMPI PUSH1 0x0 DUP1 REVERT JUMPDEST POP PUSH1 0x4 CALLDATASIZE LT PUSH2 0x2AD JUMPI PUSH1 0x0 CALLDATALOAD PUSH1 0xE0 SHR DUP1 PUSH4 0x8B86616C GT PUSH2 0x17B JUMPI DUP1 PUSH4 0xB40EBD09 GT PUSH2 0xD8 JUMPI DUP1 PUSH4 0xCEFE0F21 GT PUSH2 0x8C JUMPI DUP1 PUSH4 0xD9B0DD2C GT PUSH2 0x71 JUMPI DUP1 PUSH4 0xD9B0DD2C EQ PUSH2 0x8D7 JUMPI DUP1 PUSH4 0xEB1C92A9 EQ PUSH2 0x90A JUMPI DUP1 PUSH4 0xFD34EC40 EQ PUSH2 0x929 JUMPI PUSH2 0x2AD JUMP JUMPDEST DUP1 PUSH4 0xCEFE0F21 EQ PUSH2 0x863 JUMPI DUP1 PUSH4 0xD694376C EQ PUSH2 0x896 JUMPI PUSH2 0x2AD JUMP JUMPDEST DUP1 PUSH4 0xB8F61105 GT PUSH2 0xBD JUMPI DUP1 PUSH4 0xB8F61105 EQ PUSH2 0x7F5 JUMPI DUP1 PUSH4 0xC2138D8C EQ PUSH2 0x828 JUMPI DUP1 PUSH4 0xC78F3D0A EQ PUSH2 0x85B JUMPI PUSH2 0x2AD JUMP JUMPDEST DUP1 PUSH4 0xB40EBD09 EQ PUSH2 0x7D0 JUMPI DUP1 PUSH4 0xB731DD87 EQ PUSH2 0x7D8 JUMPI PUSH2 0x2AD JUMP JUMPDEST DUP1 PUSH4 0x9B889380 GT PUSH2 0x12F JUMPI DUP1 PUSH4 0xA27EA386 GT PUSH2 0x114 JUMPI DUP1 PUSH4 0xA27EA386 EQ PUSH2 0x721 JUMPI DUP1 PUSH4 0xA2AD7B93 EQ PUSH2 0x754 JUMPI DUP1 PUSH4 0xB02A2DE4 EQ PUSH2 0x78F JUMPI PUSH2 0x2AD JUMP JUMPDEST DUP1 PUSH4 0x9B889380 EQ PUSH2 0x6B5 JUMPI DUP1 PUSH4 0x9DCB511A EQ PUSH2 0x6EE JUMPI PUSH2 0x2AD JUMP JUMPDEST DUP1 PUSH4 0x9917DC74 GT PUSH2 0x160 JUMPI DUP1 PUSH4 0x9917DC74 EQ PUSH2 0x65B JUMPI DUP1 PUSH4 0x9A0A6635 EQ PUSH2 0x67A JUMPI DUP1 PUSH4 0x9B18DC47 EQ PUSH2 0x6AD JUMPI PUSH2 0x2AD JUMP JUMPDEST DUP1 PUSH4 0x8B86616C EQ PUSH2 0x653 JUMPI DUP1 PUSH4 0x95082D25 EQ PUSH2 0x51E JUMPI PUSH2 0x2AD JUMP JUMPDEST DUP1 PUSH4 0x4A4B1F4F GT PUSH2 0x229 JUMPI DUP1 PUSH4 0x6CE8A44B GT PUSH2 0x1DD JUMPI DUP1 PUSH4 0x717CFE7A GT PUSH2 0x1C2 JUMPI DUP1 PUSH4 0x717CFE7A EQ PUSH2 0x59E JUMPI DUP1 PUSH4 0x732391B4 EQ PUSH2 0x5D1 JUMPI DUP1 PUSH4 0x851C1BB3 EQ PUSH2 0x614 JUMPI PUSH2 0x2AD JUMP JUMPDEST DUP1 PUSH4 0x6CE8A44B EQ PUSH2 0x526 JUMPI DUP1 PUSH4 0x6EEC7779 EQ PUSH2 0x56D JUMPI PUSH2 0x2AD JUMP JUMPDEST DUP1 PUSH4 0x56C8C2C1 GT PUSH2 0x20E JUMPI DUP1 PUSH4 0x56C8C2C1 EQ PUSH2 0x4C4 JUMPI DUP1 PUSH4 0x604F37E9 EQ PUSH2 0x4FF JUMPI DUP1 PUSH4 0x67781C0E EQ PUSH2 0x51E JUMPI PUSH2 0x2AD JUMP JUMPDEST DUP1 PUSH4 0x4A4B1F4F EQ PUSH2 0x471 JUMPI DUP1 PUSH4 0x4B9ADE47 EQ PUSH2 0x479 JUMPI PUSH2 0x2AD JUMP JUMPDEST DUP1 PUSH4 0x2FC3A70A GT PUSH2 0x280 JUMPI DUP1 PUSH4 0x3D949C5F GT PUSH2 0x265 JUMPI DUP1 PUSH4 0x3D949C5F EQ PUSH2 0x3BA JUMPI DUP1 PUSH4 0x3EBA8D36 EQ PUSH2 0x3FD JUMPI DUP1 PUSH4 0x48CAC277 EQ PUSH2 0x43E JUMPI PUSH2 0x2AD JUMP JUMPDEST DUP1 PUSH4 0x2FC3A70A EQ PUSH2 0x310 JUMPI DUP1 PUSH4 0x3850C7BD EQ PUSH2 0x35B JUMPI PUSH2 0x2AD JUMP JUMPDEST DUP1 PUSH4 0x957AED9 EQ PUSH2 0x2B2 JUMPI DUP1 PUSH4 0x126082CF EQ PUSH2 0x2CC JUMPI DUP1 PUSH4 0x2FA03B8F EQ PUSH2 0x2D4 JUMPI DUP1 PUSH4 0x2FBFE3D3 EQ PUSH2 0x2F3 JUMPI JUMPDEST PUSH1 0x0 DUP1 REVERT JUMPDEST PUSH2 0x2BA PUSH2 0x948 JUMP JUMPDEST PUSH1 0x40 DUP1 MLOAD SWAP2 DUP3 MSTORE MLOAD SWAP1 DUP2 SWAP1 SUB PUSH1 0x20 ADD SWAP1 RETURN JUMPDEST PUSH2 0x2BA PUSH2 0x94D JUMP JUMPDEST PUSH2 0x2F1 PUSH1 0x4 DUP1 CALLDATASIZE SUB PUSH1 0x20 DUP2 LT ISZERO PUSH2 0x2EA JUMPI PUSH1 0x0 DUP1 REVERT JUMPDEST POP CALLDATALOAD PUSH2 0x953 JUMP JUMPDEST STOP JUMPDEST PUSH2 0x2F1 PUSH1 0x4 DUP1 CALLDATASIZE SUB PUSH1 0x20 DUP2 LT ISZERO PUSH2 0x309 JUMPI PUSH1 0x0 DUP1 REVERT JUMPDEST POP CALLDATALOAD PUSH2 0x9A6 JUMP JUMPDEST PUSH2 0x2BA PUSH1 0x4 DUP1 CALLDATASIZE SUB PUSH1 0x80 DUP2 LT ISZERO PUSH2 0x326 JUMPI PUSH1 0x0 DUP1 REVERT JUMPDEST POP PUSH20 0xFFFFFFFFFFFFFFFFFFFFFFFFFFFFFFFFFFFFFFFF DUP2 CALLDATALOAD AND SWAP1 PUSH1 0x20 DUP2 ADD CALLDATALOAD ISZERO ISZERO SWAP1 PUSH1 0x40 DUP2 ADD CALLDATALOAD ISZERO ISZERO SWAP1 PUSH1 0x60 ADD CALLDATALOAD ISZERO ISZERO PUSH2 0xA00 JUMP JUMPDEST PUSH2 0x363 PUSH2 0xAD5 JUMP JUMPDEST PUSH1 0x40 DUP1 MLOAD SWAP8 ISZERO ISZERO DUP9 MSTORE SWAP6 ISZERO ISZERO PUSH1 0x20 DUP9 ADD MSTORE SWAP4 ISZERO ISZERO DUP7 DUP7 ADD MSTORE SWAP2 ISZERO ISZERO PUSH1 0x60 DUP7 ADD MSTORE PUSH1 0xFF AND PUSH1 0x80 DUP6 ADD MSTORE PUSH2 0xFFFF AND PUSH1 0xA0 DUP5 ADD MSTORE PUSH20 0xFFFFFFFFFFFFFFFFFFFFFFFFFFFFFFFFFFFFFFFF AND PUSH1 0xC0 DUP4 ADD MSTORE MLOAD SWAP1 DUP2 SWAP1 SUB PUSH1 0xE0 ADD SWAP1 RETURN JUMPDEST PUSH2 0x2BA PUSH1 0x4 DUP1 CALLDATASIZE SUB PUSH1 0x60 DUP2 LT ISZERO PUSH2 0x3D0 JUMPI PUSH1 0x0 DUP1 REVERT JUMPDEST POP PUSH20 0xFFFFFFFFFFFFFFFFFFFFFFFFFFFFFFFFFFFFFFFF DUP2 CALLDATALOAD AND SWAP1 PUSH1 0x20 DUP2 ADD CALLDATALOAD ISZERO ISZERO SWAP1 PUSH1 0x40 ADD CALLDATALOAD ISZERO ISZERO PUSH2 0xB35 JUMP JUMPDEST PUSH2 0x2BA PUSH1 0x4 DUP1 CALLDATASIZE SUB PUSH1 0x60 DUP2 LT ISZERO PUSH2 0x413 JUMPI PUSH1 0x0 DUP1 REVERT JUMPDEST POP PUSH20 0xFFFFFFFFFFFFFFFFFFFFFFFFFFFFFFFFFFFFFFFF DUP2 CALLDATALOAD AND SWAP1 PUSH1 0x20 DUP2 ADD CALLDATALOAD SWAP1 PUSH1 0x40 ADD CALLDATALOAD ISZERO ISZERO PUSH2 0xD43 JUMP JUMPDEST PUSH2 0x2BA PUSH1 0x4 DUP1 CALLDATASIZE SUB PUSH1 0x20 DUP2 LT ISZERO PUSH2 0x454 JUMPI PUSH1 0x0 DUP1 REVERT JUMPDEST POP CALLDATALOAD PUSH20 0xFFFFFFFFFFFFFFFFFFFFFFFFFFFFFFFFFFFFFFFF AND PUSH2 0xE20 JUMP JUMPDEST PUSH2 0x2BA PUSH2 0xE32 JUMP JUMPDEST PUSH2 0x2F1 PUSH1 0x4 DUP1 CALLDATASIZE SUB PUSH1 0x80 DUP2 LT ISZERO PUSH2 0x48F JUMPI PUSH1 0x0 DUP1 REVERT JUMPDEST POP PUSH20 0xFFFFFFFFFFFFFFFFFFFFFFFFFFFFFFFFFFFFFFFF DUP2 CALLDATALOAD DUP2 AND SWAP2 PUSH1 0x20 DUP2 ADD CALLDATALOAD SWAP1 SWAP2 AND SWAP1 PUSH1 0x40 DUP2 ADD CALLDATALOAD SWAP1 PUSH1 0x60 ADD CALLDATALOAD ISZERO ISZERO PUSH2 0xE37 JUMP JUMPDEST PUSH2 0x2BA PUSH1 0x4 DUP1 CALLDATASIZE SUB PUSH1 0x40 DUP2 LT ISZERO PUSH2 0x4DA JUMPI PUSH1 0x0 DUP1 REVERT JUMPDEST POP PUSH20 0xFFFFFFFFFFFFFFFFFFFFFFFFFFFFFFFFFFFFFFFF DUP2 CALLDATALOAD AND SWAP1 PUSH1 0x20 ADD CALLDATALOAD ISZERO ISZERO PUSH2 0xED7 JUMP JUMPDEST PUSH2 0x2F1 PUSH1 0x4 DUP1 CALLDATASIZE SUB PUSH1 0x20 DUP2 LT ISZERO PUSH2 0x515 JUMPI PUSH1 0x0 DUP1 REVERT JUMPDEST POP CALLDATALOAD ISZERO ISZERO PUSH2 0x12B0 JUMP JUMPDEST PUSH2 0x2BA PUSH2 0x12F1 JUMP JUMPDEST PUSH2 0x559 PUSH1 0x4 DUP1 CALLDATASIZE SUB PUSH1 0x20 DUP2 LT ISZERO PUSH2 0x53C JUMPI PUSH1 0x0 DUP1 REVERT JUMPDEST POP CALLDATALOAD PUSH20 0xFFFFFFFFFFFFFFFFFFFFFFFFFFFFFFFFFFFFFFFF AND PUSH2 0x1302 JUMP JUMPDEST PUSH1 0x40 DUP1 MLOAD SWAP2 ISZERO ISZERO DUP3 MSTORE MLOAD SWAP1 DUP2 SWAP1 SUB PUSH1 0x20 ADD SWAP1 RETURN JUMPDEST PUSH2 0x575 PUSH2 0x1317 JUMP JUMPDEST PUSH1 0x40 DUP1 MLOAD PUSH20 0xFFFFFFFFFFFFFFFFFFFFFFFFFFFFFFFFFFFFFFFF SWAP1 SWAP3 AND DUP3 MSTORE MLOAD SWAP1 DUP2 SWAP1 SUB PUSH1 0x20 ADD SWAP1 RETURN JUMPDEST PUSH2 0x2BA PUSH1 0x4 DUP1 CALLDATASIZE SUB PUSH1 0x20 DUP2 LT ISZERO PUSH2 0x5B4 JUMPI PUSH1 0x0 DUP1 REVERT JUMPDEST POP CALLDATALOAD PUSH20 0xFFFFFFFFFFFFFFFFFFFFFFFFFFFFFFFFFFFFFFFF AND PUSH2 0x1333 JUMP JUMPDEST PUSH2 0x2BA PUSH1 0x4 DUP1 CALLDATASIZE SUB PUSH1 0x60 DUP2 LT ISZERO PUSH2 0x5E7 JUMPI PUSH1 0x0 DUP1 REVERT JUMPDEST POP PUSH20 0xFFFFFFFFFFFFFFFFFFFFFFFFFFFFFFFFFFFFFFFF DUP2 CALLDATALOAD AND SWAP1 PUSH1 0x20 DUP2 ADD CALLDATALOAD ISZERO ISZERO SWAP1 PUSH1 0x40 ADD CALLDATALOAD ISZERO ISZERO PUSH2 0x1345 JUMP JUMPDEST PUSH2 0x2BA PUSH1 0x4 DUP1 CALLDATASIZE SUB PUSH1 0x20 DUP2 LT ISZERO PUSH2 0x62A JUMPI PUSH1 0x0 DUP1 REVERT JUMPDEST POP CALLDATALOAD PUSH32 0xFFFFFFFF00000000000000000000000000000000000000000000000000000000 AND PUSH2 0x1391 JUMP JUMPDEST PUSH2 0x575 PUSH2 0x1402 JUMP JUMPDEST PUSH2 0x2F1 PUSH1 0x4 DUP1 CALLDATASIZE SUB PUSH1 0x20 DUP2 LT ISZERO PUSH2 0x671 JUMPI PUSH1 0x0 DUP1 REVERT JUMPDEST POP CALLDATALOAD ISZERO ISZERO PUSH2 0x141E JUMP JUMPDEST PUSH2 0x2F1 PUSH1 0x4 DUP1 CALLDATASIZE SUB PUSH1 0x20 DUP2 LT ISZERO PUSH2 0x690 JUMPI PUSH1 0x0 DUP1 REVERT JUMPDEST POP CALLDATALOAD PUSH20 0xFFFFFFFFFFFFFFFFFFFFFFFFFFFFFFFFFFFFFFFF AND PUSH2 0x1457 JUMP JUMPDEST PUSH2 0x2BA PUSH2 0x14A6 JUMP JUMPDEST PUSH2 0x2F1 PUSH1 0x4 DUP1 CALLDATASIZE SUB PUSH1 0x40 DUP2 LT ISZERO PUSH2 0x6CB JUMPI PUSH1 0x0 DUP1 REVERT JUMPDEST POP PUSH20 0xFFFFFFFFFFFFFFFFFFFFFFFFFFFFFFFFFFFFFFFF DUP2 CALLDATALOAD AND SWAP1 PUSH1 0x20 ADD CALLDATALOAD PUSH2 0x14AC JUMP JUMPDEST PUSH2 0x575 PUSH1 0x4 DUP1 CALLDATASIZE SUB PUSH1 0x20 DUP2 LT ISZERO PUSH2 0x704 JUMPI PUSH1 0x0 DUP1 REVERT JUMPDEST POP CALLDATALOAD PUSH20 0xFFFFFFFFFFFFFFFFFFFFFFFFFFFFFFFFFFFFFFFF AND PUSH2 0x14ED JUMP JUMPDEST PUSH2 0x2BA PUSH1 0x4 DUP1 CALLDATASIZE SUB PUSH1 0x20 DUP2 LT ISZERO PUSH2 0x737 JUMPI PUSH1 0x0 DUP1 REVERT JUMPDEST POP CALLDATALOAD PUSH20 0xFFFFFFFFFFFFFFFFFFFFFFFFFFFFFFFFFFFFFFFF AND PUSH2 0x1515 JUMP JUMPDEST PUSH2 0x2BA PUSH1 0x4 DUP1 CALLDATASIZE SUB PUSH1 0x40 DUP2 LT ISZERO PUSH2 0x76A JUMPI PUSH1 0x0 DUP1 REVERT JUMPDEST POP PUSH20 0xFFFFFFFFFFFFFFFFFFFFFFFFFFFFFFFFFFFFFFFF DUP2 CALLDATALOAD AND SWAP1 PUSH1 0x20 ADD CALLDATALOAD ISZERO ISZERO PUSH2 0x1527 JUMP JUMPDEST PUSH2 0x2BA PUSH1 0x4 DUP1 CALLDATASIZE SUB PUSH1 0x60 DUP2 LT ISZERO PUSH2 0x7A5 JUMPI PUSH1 0x0 DUP1 REVERT JUMPDEST POP PUSH20 0xFFFFFFFFFFFFFFFFFFFFFFFFFFFFFFFFFFFFFFFF DUP2 CALLDATALOAD AND SWAP1 PUSH1 0x20 DUP2 ADD CALLDATALOAD ISZERO ISZERO SWAP1 PUSH1 0x40 ADD CALLDATALOAD PUSH2 0x1618 JUMP JUMPDEST PUSH2 0x2BA PUSH2 0x16E7 JUMP JUMPDEST PUSH2 0x2F1 PUSH1 0x4 DUP1 CALLDATASIZE SUB PUSH1 0x20 DUP2 LT ISZERO PUSH2 0x7EE JUMPI PUSH1 0x0 DUP1 REVERT JUMPDEST POP CALLDATALOAD PUSH2 0x16ED JUMP JUMPDEST PUSH2 0x559 PUSH1 0x4 DUP1 CALLDATASIZE SUB PUSH1 0x20 DUP2 LT ISZERO PUSH2 0x80B JUMPI PUSH1 0x0 DUP1 REVERT JUMPDEST POP CALLDATALOAD PUSH20 0xFFFFFFFFFFFFFFFFFFFFFFFFFFFFFFFFFFFFFFFF AND PUSH2 0x1733 JUMP JUMPDEST PUSH2 0x2BA PUSH1 0x4 DUP1 CALLDATASIZE SUB PUSH1 0x20 DUP2 LT ISZERO PUSH2 0x83E JUMPI PUSH1 0x0 DUP1 REVERT JUMPDEST POP CALLDATALOAD PUSH20 0xFFFFFFFFFFFFFFFFFFFFFFFFFFFFFFFFFFFFFFFF AND PUSH2 0x1748 JUMP JUMPDEST PUSH2 0x575 PUSH2 0x174E JUMP JUMPDEST PUSH2 0x2BA PUSH1 0x4 DUP1 CALLDATASIZE SUB PUSH1 0x20 DUP2 LT ISZERO PUSH2 0x879 JUMPI PUSH1 0x0 DUP1 REVERT JUMPDEST POP CALLDATALOAD PUSH20 0xFFFFFFFFFFFFFFFFFFFFFFFFFFFFFFFFFFFFFFFF AND PUSH2 0x1772 JUMP JUMPDEST PUSH2 0x2F1 PUSH1 0x4 DUP1 CALLDATASIZE SUB PUSH1 0x60 DUP2 LT ISZERO PUSH2 0x8AC JUMPI PUSH1 0x0 DUP1 REVERT JUMPDEST POP PUSH20 0xFFFFFFFFFFFFFFFFFFFFFFFFFFFFFFFFFFFFFFFF DUP2 CALLDATALOAD AND SWAP1 PUSH1 0x20 DUP2 ADD CALLDATALOAD ISZERO ISZERO SWAP1 PUSH1 0x40 ADD CALLDATALOAD PUSH2 0x1784 JUMP JUMPDEST PUSH2 0x2F1 PUSH1 0x4 DUP1 CALLDATASIZE SUB PUSH1 0x20 DUP2 LT ISZERO PUSH2 0x8ED JUMPI PUSH1 0x0 DUP1 REVERT JUMPDEST POP CALLDATALOAD PUSH20 0xFFFFFFFFFFFFFFFFFFFFFFFFFFFFFFFFFFFFFFFF AND PUSH2 0x184C JUMP JUMPDEST PUSH2 0x2F1 PUSH1 0x4 DUP1 CALLDATASIZE SUB PUSH1 0x20 DUP2 LT ISZERO PUSH2 0x920 JUMPI PUSH1 0x0 DUP1 REVERT JUMPDEST POP CALLDATALOAD ISZERO ISZERO PUSH2 0x189B JUMP JUMPDEST PUSH2 0x2F1 PUSH1 0x4 DUP1 CALLDATASIZE SUB PUSH1 0x20 DUP2 LT ISZERO PUSH2 0x93F JUMPI PUSH1 0x0 DUP1 REVERT JUMPDEST POP CALLDATALOAD ISZERO ISZERO PUSH2 0x18DA JUMP JUMPDEST PUSH1 0x32 DUP2 JUMP JUMPDEST PUSH2 0x2710 DUP2 JUMP JUMPDEST PUSH2 0x95B PUSH2 0x191A JUMP JUMPDEST PUSH2 0x96A PUSH1 0x0 DUP3 GT PUSH2 0x296B PUSH2 0x1963 JUMP JUMPDEST PUSH1 0x0 DUP1 SLOAD PUSH1 0xFF SWAP1 SWAP3 AND PUSH5 0x100000000 MUL PUSH32 0xFFFFFFFFFFFFFFFFFFFFFFFFFFFFFFFFFFFFFFFFFFFFFFFFFFFFFF00FFFFFFFF SWAP1 SWAP3 AND SWAP2 SWAP1 SWAP2 OR SWAP1 SSTORE JUMP JUMPDEST PUSH2 0x9AE PUSH2 0x191A JUMP JUMPDEST PUSH1 0x0 DUP1 SLOAD PUSH20 0xFFFFFFFFFFFFFFFFFFFFFFFFFFFFFFFFFFFFFFFF SWAP1 SWAP3 AND PUSH8 0x100000000000000 MUL PUSH32 0xFFFFFFFFFF0000000000000000000000000000000000000000FFFFFFFFFFFFFF SWAP1 SWAP3 AND SWAP2 SWAP1 SWAP2 OR SWAP1 SSTORE JUMP JUMPDEST PUSH1 0x0 DUP1 SLOAD DUP2 SWAP1 PUSH3 0x10000 SWAP1 DIV PUSH1 0xFF AND PUSH2 0xA23 JUMPI PUSH2 0xA1E DUP7 DUP7 DUP7 PUSH2 0xB35 JUMP JUMPDEST PUSH2 0xA2E JUMP JUMPDEST PUSH2 0xA2E DUP7 DUP7 DUP7 PUSH2 0x1345 JUMP JUMPDEST PUSH20 0xFFFFFFFFFFFFFFFFFFFFFFFFFFFFFFFFFFFFFFFF DUP8 AND PUSH1 0x0 SWAP1 DUP2 MSTORE PUSH1 0x7 PUSH1 0x20 MSTORE PUSH1 0x40 SWAP1 KECCAK256 SLOAD SWAP1 SWAP2 POP DUP1 ISZERO PUSH2 0xACB JUMPI PUSH20 0xFFFFFFFFFFFFFFFFFFFFFFFFFFFFFFFFFFFFFFFF DUP8 AND PUSH1 0x0 SWAP1 DUP2 MSTORE PUSH1 0x8 PUSH1 0x20 MSTORE PUSH1 0x40 SWAP1 KECCAK256 SLOAD PUSH1 0xFF AND DUP1 ISZERO PUSH2 0xAB3 JUMPI PUSH2 0xAAC PUSH2 0x2710 PUSH2 0xAA6 PUSH2 0xA9F DUP3 DUP7 PUSH2 0x1975 JUMP JUMPDEST DUP7 SWAP1 PUSH2 0x1987 JUMP JUMPDEST SWAP1 PUSH2 0x19AF JUMP JUMPDEST SWAP3 POP PUSH2 0xAC9 JUMP JUMPDEST PUSH2 0xAC6 PUSH2 0x2710 PUSH2 0xAA6 PUSH2 0xA9F DUP3 DUP7 PUSH2 0x19BD JUMP JUMPDEST SWAP3 POP JUMPDEST POP JUMPDEST POP SWAP6 SWAP5 POP POP POP POP POP JUMP JUMPDEST PUSH1 0x0 SLOAD PUSH1 0xFF DUP1 DUP3 AND SWAP2 PUSH2 0x100 DUP2 DIV DUP3 AND SWAP2 PUSH3 0x10000 DUP3 DIV DUP2 AND SWAP2 PUSH4 0x1000000 DUP2 DIV DUP3 AND SWAP2 PUSH5 0x100000000 DUP3 DIV AND SWAP1 PUSH6 0x10000000000 DUP2 DIV PUSH2 0xFFFF AND SWAP1 PUSH8 0x100000000000000 SWAP1 DIV PUSH20 0xFFFFFFFFFFFFFFFFFFFFFFFFFFFFFFFFFFFFFFFF AND DUP8 JUMP JUMPDEST PUSH1 0x0 DUP1 PUSH2 0xB42 DUP6 DUP6 PUSH2 0xED7 JUMP JUMPDEST SWAP1 POP DUP3 DUP1 ISZERO PUSH2 0xB53 JUMPI POP PUSH1 0x0 SLOAD PUSH1 0xFF AND JUMPDEST ISZERO PUSH2 0xB98 JUMPI PUSH1 0x0 PUSH2 0xB63 DUP7 PUSH2 0x1748 JUMP JUMPDEST SWAP1 POP DUP1 ISZERO PUSH2 0xB96 JUMPI DUP5 DUP1 ISZERO PUSH2 0xB77 JUMPI POP DUP2 DUP2 GT JUMPDEST ISZERO PUSH2 0xB80 JUMPI DUP1 SWAP2 POP JUMPDEST DUP5 ISZERO DUP1 ISZERO PUSH2 0xB8D JUMPI POP DUP2 DUP2 LT JUMPDEST ISZERO PUSH2 0xB96 JUMPI DUP1 SWAP2 POP JUMPDEST POP JUMPDEST PUSH1 0x0 SLOAD PUSH2 0x100 SWAP1 DIV PUSH1 0xFF AND ISZERO PUSH2 0xBB6 JUMPI PUSH2 0xBB3 DUP6 DUP3 DUP7 PUSH2 0xD43 JUMP JUMPDEST SWAP1 POP JUMPDEST PUSH20 0xFFFFFFFFFFFFFFFFFFFFFFFFFFFFFFFFFFFFFFFF DUP6 AND PUSH1 0x0 SWAP1 DUP2 MSTORE PUSH1 0x6 PUSH1 0x20 MSTORE PUSH1 0x40 SWAP1 KECCAK256 SLOAD PUSH1 0xFF AND ISZERO PUSH2 0xCD5 JUMPI PUSH1 0x0 PUSH13 0xC9F2C9CD04674EDEA40000000 DUP3 GT PUSH2 0xC16 JUMPI PUSH2 0xC11 PUSH13 0xC9F2C9CD04674EDEA40000000 DUP4 PUSH2 0x19BD JUMP JUMPDEST PUSH2 0xC2D JUMP JUMPDEST PUSH2 0xC2D DUP3 PUSH13 0xC9F2C9CD04674EDEA40000000 PUSH2 0x19BD JUMP JUMPDEST PUSH1 0x0 SLOAD SWAP1 SWAP2 POP PUSH8 0x100000000000000 SWAP1 DIV PUSH20 0xFFFFFFFFFFFFFFFFFFFFFFFFFFFFFFFFFFFFFFFF AND DUP2 GT PUSH2 0xC71 JUMPI PUSH13 0xC9F2C9CD04674EDEA40000000 SWAP3 POP POP POP PUSH2 0xD3C JUMP JUMPDEST DUP5 DUP1 ISZERO PUSH2 0xC8A JUMPI POP PUSH13 0xC9F2C9CD04674EDEA40000000 DUP3 GT JUMPDEST ISZERO PUSH2 0xC97 JUMPI POP SWAP1 POP PUSH2 0xD3C JUMP JUMPDEST DUP5 ISZERO DUP1 ISZERO PUSH2 0xCB1 JUMPI POP PUSH13 0xC9F2C9CD04674EDEA40000000 DUP3 LT JUMPDEST ISZERO PUSH2 0xCBE JUMPI POP SWAP1 POP PUSH2 0xD3C JUMP JUMPDEST PUSH13 0xC9F2C9CD04674EDEA40000000 SWAP3 POP POP POP PUSH2 0xD3C JUMP JUMPDEST PUSH20 0xFFFFFFFFFFFFFFFFFFFFFFFFFFFFFFFFFFFFFFFF DUP6 AND PUSH1 0x0 SWAP1 DUP2 MSTORE PUSH1 0x5 PUSH1 0x20 MSTORE PUSH1 0x40 SWAP1 KECCAK256 SLOAD DUP5 ISZERO PUSH2 0xD24 JUMPI PUSH2 0xD1B PUSH2 0x2710 PUSH2 0xAA6 PUSH2 0xD14 DUP3 DUP6 PUSH2 0x1975 JUMP JUMPDEST DUP6 SWAP1 PUSH2 0x1987 JUMP JUMPDEST SWAP3 POP POP POP PUSH2 0xD3C JUMP JUMPDEST PUSH2 0xD37 PUSH2 0x2710 PUSH2 0xAA6 PUSH2 0xD14 DUP3 DUP6 PUSH2 0x19BD JUMP JUMPDEST SWAP3 POP POP POP JUMPDEST SWAP4 SWAP3 POP POP POP JUMP JUMPDEST PUSH1 0x2 SLOAD PUSH1 0x0 SWAP1 PUSH20 0xFFFFFFFFFFFFFFFFFFFFFFFFFFFFFFFFFFFFFFFF AND PUSH2 0xD6A JUMPI POP DUP2 PUSH2 0xD3C JUMP JUMPDEST PUSH1 0x2 SLOAD PUSH1 0x40 DUP1 MLOAD PUSH32 0x7FECE36800000000000000000000000000000000000000000000000000000000 DUP2 MSTORE PUSH20 0xFFFFFFFFFFFFFFFFFFFFFFFFFFFFFFFFFFFFFFFF DUP8 DUP2 AND PUSH1 0x4 DUP4 ADD MSTORE PUSH1 0x24 DUP3 ADD DUP8 SWAP1 MSTORE DUP6 ISZERO ISZERO PUSH1 0x44 DUP4 ADD MSTORE SWAP2 MLOAD SWAP2 SWAP1 SWAP3 AND SWAP2 PUSH4 0x7FECE368 SWAP2 PUSH1 0x64 DUP1 DUP4 ADD SWAP3 PUSH1 0x20 SWAP3 SWAP2 SWAP1 DUP3 SWAP1 SUB ADD DUP2 DUP7 DUP1 EXTCODESIZE ISZERO DUP1 ISZERO PUSH2 0xDEC JUMPI PUSH1 0x0 DUP1 REVERT JUMPDEST POP GAS STATICCALL ISZERO DUP1 ISZERO PUSH2 0xE00 JUMPI RETURNDATASIZE PUSH1 0x0 DUP1 RETURNDATACOPY RETURNDATASIZE PUSH1 0x0 REVERT JUMPDEST POP POP POP POP PUSH1 0x40 MLOAD RETURNDATASIZE PUSH1 0x20 DUP2 LT ISZERO PUSH2 0xE16 JUMPI PUSH1 0x0 DUP1 REVERT JUMPDEST POP MLOAD SWAP5 SWAP4 POP POP POP POP JUMP JUMPDEST PUSH1 0x7 PUSH1 0x20 MSTORE PUSH1 0x0 SWAP1 DUP2 MSTORE PUSH1 0x40 SWAP1 KECCAK256 SLOAD DUP2 JUMP JUMPDEST PUSH1 0x14 DUP2 JUMP JUMPDEST PUSH2 0xE3F PUSH2 0x191A JUMP JUMPDEST PUSH20 0xFFFFFFFFFFFFFFFFFFFFFFFFFFFFFFFFFFFFFFFF SWAP4 DUP5 AND PUSH1 0x0 SWAP1 DUP2 MSTORE PUSH1 0x3 PUSH1 0x20 SWAP1 DUP2 MSTORE PUSH1 0x40 DUP1 DUP4 KECCAK256 DUP1 SLOAD PUSH32 0xFFFFFFFFFFFFFFFFFFFFFFFF0000000000000000000000000000000000000000 AND SWAP7 SWAP1 SWAP8 AND SWAP6 SWAP1 SWAP6 OR SWAP1 SWAP6 SSTORE PUSH1 0x4 DUP6 MSTORE DUP4 DUP2 KECCAK256 SWAP3 SWAP1 SWAP3 SSTORE PUSH1 0x6 SWAP1 SWAP4 MSTORE KECCAK256 DUP1 SLOAD PUSH32 0xFFFFFFFFFFFFFFFFFFFFFFFFFFFFFFFFFFFFFFFFFFFFFFFFFFFFFFFFFFFFFF00 AND SWAP2 ISZERO ISZERO SWAP2 SWAP1 SWAP2 OR SWAP1 SSTORE JUMP JUMPDEST PUSH20 0xFFFFFFFFFFFFFFFFFFFFFFFFFFFFFFFFFFFFFFFF DUP1 DUP4 AND PUSH1 0x0 SWAP1 DUP2 MSTORE PUSH1 0x3 PUSH1 0x20 MSTORE PUSH1 0x40 DUP2 KECCAK256 SLOAD SWAP1 SWAP2 AND PUSH2 0xF0F DUP2 ISZERO ISZERO PUSH2 0x296C PUSH2 0x1963 JUMP JUMPDEST PUSH1 0x1 SLOAD PUSH20 0xFFFFFFFFFFFFFFFFFFFFFFFFFFFFFFFFFFFFFFFF AND ISZERO PUSH2 0x1002 JUMPI PUSH1 0x0 DUP1 PUSH1 0x1 PUSH1 0x0 SWAP1 SLOAD SWAP1 PUSH2 0x100 EXP SWAP1 DIV PUSH20 0xFFFFFFFFFFFFFFFFFFFFFFFFFFFFFFFFFFFFFFFF AND PUSH20 0xFFFFFFFFFFFFFFFFFFFFFFFFFFFFFFFFFFFFFFFF AND PUSH4 0xFEAF968C PUSH1 0x40 MLOAD DUP2 PUSH4 0xFFFFFFFF AND PUSH1 0xE0 SHL DUP2 MSTORE PUSH1 0x4 ADD PUSH1 0xA0 PUSH1 0x40 MLOAD DUP1 DUP4 SUB DUP2 DUP7 DUP1 EXTCODESIZE ISZERO DUP1 ISZERO PUSH2 0xF98 JUMPI PUSH1 0x0 DUP1 REVERT JUMPDEST POP GAS STATICCALL ISZERO DUP1 ISZERO PUSH2 0xFAC JUMPI RETURNDATASIZE PUSH1 0x0 DUP1 RETURNDATACOPY RETURNDATASIZE PUSH1 0x0 REVERT JUMPDEST POP POP POP POP PUSH1 0x40 MLOAD RETURNDATASIZE PUSH1 0xA0 DUP2 LT ISZERO PUSH2 0xFC2 JUMPI PUSH1 0x0 DUP1 REVERT JUMPDEST POP PUSH1 0x20 DUP2 ADD MLOAD PUSH1 0x40 SWAP1 SWAP2 ADD MLOAD SWAP1 SWAP3 POP SWAP1 POP DUP2 ISZERO DUP1 PUSH2 0xFE5 JUMPI PUSH2 0xFE5 PUSH2 0x296F PUSH2 0x19CB JUMP JUMPDEST TIMESTAMP DUP3 SWAP1 SUB PUSH2 0xE10 DUP2 GT PUSH2 0xFFD JUMPI PUSH2 0xFFD PUSH2 0x2970 PUSH2 0x19CB JUMP JUMPDEST POP POP POP POP JUMPDEST PUSH1 0x0 DUP2 SWAP1 POP PUSH1 0x0 DUP1 DUP3 PUSH20 0xFFFFFFFFFFFFFFFFFFFFFFFFFFFFFFFFFFFFFFFF AND PUSH4 0x668A0F02 PUSH1 0x40 MLOAD DUP2 PUSH4 0xFFFFFFFF AND PUSH1 0xE0 SHL DUP2 MSTORE PUSH1 0x4 ADD PUSH1 0x20 PUSH1 0x40 MLOAD DUP1 DUP4 SUB DUP2 DUP7 DUP1 EXTCODESIZE ISZERO DUP1 ISZERO PUSH2 0x1050 JUMPI PUSH1 0x0 DUP1 REVERT JUMPDEST POP GAS STATICCALL ISZERO DUP1 ISZERO PUSH2 0x1064 JUMPI RETURNDATASIZE PUSH1 0x0 DUP1 RETURNDATACOPY RETURNDATASIZE PUSH1 0x0 REVERT JUMPDEST POP POP POP POP PUSH1 0x40 MLOAD RETURNDATASIZE PUSH1 0x20 DUP2 LT ISZERO PUSH2 0x107A JUMPI PUSH1 0x0 DUP1 REVERT JUMPDEST POP MLOAD SWAP1 POP PUSH1 0x0 JUMPDEST PUSH1 0x0 SLOAD PUSH5 0x100000000 SWAP1 DIV PUSH1 0xFF AND PUSH10 0xFFFFFFFFFFFFFFFFFFFF DUP3 AND LT ISZERO PUSH2 0x124D JUMPI DUP1 PUSH10 0xFFFFFFFFFFFFFFFFFFFF AND DUP3 PUSH10 0xFFFFFFFFFFFFFFFFFFFF AND GT PUSH2 0x10C6 JUMPI PUSH2 0x124D JUMP JUMPDEST PUSH1 0x0 PUSH10 0xFFFFFFFFFFFFFFFFFFFF DUP3 AND PUSH2 0x1165 JUMPI PUSH1 0x0 DUP6 PUSH20 0xFFFFFFFFFFFFFFFFFFFFFFFFFFFFFFFFFFFFFFFF AND PUSH4 0x50D25BCD PUSH1 0x40 MLOAD DUP2 PUSH4 0xFFFFFFFF AND PUSH1 0xE0 SHL DUP2 MSTORE PUSH1 0x4 ADD PUSH1 0x20 PUSH1 0x40 MLOAD DUP1 DUP4 SUB DUP2 DUP7 DUP1 EXTCODESIZE ISZERO DUP1 ISZERO PUSH2 0x1121 JUMPI PUSH1 0x0 DUP1 REVERT JUMPDEST POP GAS STATICCALL ISZERO DUP1 ISZERO PUSH2 0x1135 JUMPI RETURNDATASIZE PUSH1 0x0 DUP1 RETURNDATACOPY RETURNDATASIZE PUSH1 0x0 REVERT JUMPDEST POP POP POP POP PUSH1 0x40 MLOAD RETURNDATASIZE PUSH1 0x20 DUP2 LT ISZERO PUSH2 0x114B JUMPI PUSH1 0x0 DUP1 REVERT JUMPDEST POP MLOAD SWAP1 POP PUSH2 0x115E PUSH1 0x0 DUP3 SGT PUSH2 0x296D PUSH2 0x1963 JUMP JUMPDEST SWAP1 POP PUSH2 0x1209 JUMP JUMPDEST PUSH1 0x0 DUP6 PUSH20 0xFFFFFFFFFFFFFFFFFFFFFFFFFFFFFFFFFFFFFFFF AND PUSH4 0x9A6FC8F5 DUP5 DUP7 SUB PUSH1 0x40 MLOAD DUP3 PUSH4 0xFFFFFFFF AND PUSH1 0xE0 SHL DUP2 MSTORE PUSH1 0x4 ADD DUP1 DUP3 PUSH10 0xFFFFFFFFFFFFFFFFFFFF AND DUP2 MSTORE PUSH1 0x20 ADD SWAP2 POP POP PUSH1 0xA0 PUSH1 0x40 MLOAD DUP1 DUP4 SUB DUP2 DUP7 DUP1 EXTCODESIZE ISZERO DUP1 ISZERO PUSH2 0x11C6 JUMPI PUSH1 0x0 DUP1 REVERT JUMPDEST POP GAS STATICCALL ISZERO DUP1 ISZERO PUSH2 0x11DA JUMPI RETURNDATASIZE PUSH1 0x0 DUP1 RETURNDATACOPY RETURNDATASIZE PUSH1 0x0 REVERT JUMPDEST POP POP POP POP PUSH1 0x40 MLOAD RETURNDATASIZE PUSH1 0xA0 DUP2 LT ISZERO PUSH2 0x11F0 JUMPI PUSH1 0x0 DUP1 REVERT JUMPDEST POP PUSH1 0x20 ADD MLOAD SWAP1 POP PUSH2 0x1206 PUSH1 0x0 DUP3 SGT PUSH2 0x296D PUSH2 0x1963 JUMP JUMPDEST SWAP1 POP JUMPDEST DUP4 PUSH2 0x1215 JUMPI SWAP3 POP PUSH2 0x1245 JUMP JUMPDEST DUP8 DUP1 ISZERO PUSH2 0x1221 JUMPI POP DUP4 DUP2 GT JUMPDEST ISZERO PUSH2 0x122D JUMPI SWAP3 POP PUSH2 0x1245 JUMP JUMPDEST DUP8 ISZERO DUP1 ISZERO PUSH2 0x123A JUMPI POP DUP4 DUP2 LT JUMPDEST ISZERO PUSH2 0x1243 JUMPI DUP1 SWAP4 POP JUMPDEST POP JUMPDEST PUSH1 0x1 ADD PUSH2 0x1081 JUMP JUMPDEST POP PUSH2 0x125D PUSH1 0x0 DUP4 GT PUSH2 0x2971 PUSH2 0x1963 JUMP JUMPDEST PUSH20 0xFFFFFFFFFFFFFFFFFFFFFFFFFFFFFFFFFFFFFFFF DUP8 AND PUSH1 0x0 SWAP1 DUP2 MSTORE PUSH1 0x4 PUSH1 0x20 MSTORE PUSH1 0x40 SWAP1 KECCAK256 SLOAD PUSH2 0x12A2 PUSH1 0xA DUP3 SWAP1 EXP PUSH2 0xAA6 DUP6 PUSH13 0xC9F2C9CD04674EDEA40000000 PUSH2 0x1987 JUMP JUMPDEST SWAP6 POP POP POP POP POP POP JUMPDEST SWAP3 SWAP2 POP POP JUMP JUMPDEST PUSH2 0x12B8 PUSH2 0x191A JUMP JUMPDEST PUSH1 0x0 DUP1 SLOAD SWAP2 ISZERO ISZERO PUSH4 0x1000000 MUL PUSH32 0xFFFFFFFFFFFFFFFFFFFFFFFFFFFFFFFFFFFFFFFFFFFFFFFFFFFFFFFF00FFFFFF SWAP1 SWAP3 AND SWAP2 SWAP1 SWAP2 OR SWAP1 SSTORE JUMP JUMPDEST PUSH13 0xC9F2C9CD04674EDEA40000000 DUP2 JUMP JUMPDEST PUSH1 0x8 PUSH1 0x20 MSTORE PUSH1 0x0 SWAP1 DUP2 MSTORE PUSH1 0x40 SWAP1 KECCAK256 SLOAD PUSH1 0xFF AND DUP2 JUMP JUMPDEST PUSH1 0x1 SLOAD PUSH20 0xFFFFFFFFFFFFFFFFFFFFFFFFFFFFFFFFFFFFFFFF AND DUP2 JUMP JUMPDEST PUSH1 0x9 PUSH1 0x20 MSTORE PUSH1 0x0 SWAP1 DUP2 MSTORE PUSH1 0x40 SWAP1 KECCAK256 SLOAD DUP2 JUMP JUMPDEST PUSH1 0x0 DUP1 PUSH2 0x1352 DUP6 DUP6 PUSH2 0xED7 JUMP JUMPDEST SWAP1 POP DUP3 DUP1 ISZERO PUSH2 0x1363 JUMPI POP PUSH1 0x0 SLOAD PUSH1 0xFF AND JUMPDEST ISZERO PUSH2 0xB98 JUMPI PUSH2 0x1373 DUP6 DUP6 DUP4 PUSH2 0x1618 JUMP JUMPDEST SWAP1 POP PUSH1 0x0 SLOAD PUSH1 0xFF PUSH2 0x100 SWAP1 SWAP2 DIV AND ISZERO PUSH2 0xBB6 JUMPI PUSH2 0xBB3 DUP6 DUP3 DUP7 PUSH2 0xD43 JUMP JUMPDEST PUSH1 0x40 DUP1 MLOAD PUSH32 0x0 PUSH1 0x20 DUP1 DUP4 ADD SWAP2 SWAP1 SWAP2 MSTORE PUSH32 0xFFFFFFFF00000000000000000000000000000000000000000000000000000000 DUP5 AND DUP3 DUP5 ADD MSTORE DUP3 MLOAD PUSH1 0x24 DUP2 DUP5 SUB ADD DUP2 MSTORE PUSH1 0x44 SWAP1 SWAP3 ADD SWAP1 SWAP3 MSTORE DUP1 MLOAD SWAP2 ADD KECCAK256 SWAP2 SWAP1 POP JUMP JUMPDEST PUSH1 0x2 SLOAD PUSH20 0xFFFFFFFFFFFFFFFFFFFFFFFFFFFFFFFFFFFFFFFF AND DUP2 JUMP JUMPDEST PUSH2 0x1426 PUSH2 0x191A JUMP JUMPDEST PUSH1 0x0 DUP1 SLOAD PUSH32 0xFFFFFFFFFFFFFFFFFFFFFFFFFFFFFFFFFFFFFFFFFFFFFFFFFFFFFFFFFFFFFF00 AND SWAP2 ISZERO ISZERO SWAP2 SWAP1 SWAP2 OR SWAP1 SSTORE JUMP JUMPDEST PUSH2 0x145F PUSH2 0x191A JUMP JUMPDEST PUSH1 0x2 DUP1 SLOAD PUSH32 0xFFFFFFFFFFFFFFFFFFFFFFFF0000000000000000000000000000000000000000 AND PUSH20 0xFFFFFFFFFFFFFFFFFFFFFFFFFFFFFFFFFFFFFFFF SWAP3 SWAP1 SWAP3 AND SWAP2 SWAP1 SWAP2 OR SWAP1 SSTORE JUMP JUMPDEST PUSH2 0x1C20 DUP2 JUMP JUMPDEST PUSH2 0x14B4 PUSH2 0x191A JUMP JUMPDEST PUSH2 0x14C4 PUSH1 0x32 DUP3 GT ISZERO PUSH2 0x296A PUSH2 0x1963 JUMP JUMPDEST PUSH20 0xFFFFFFFFFFFFFFFFFFFFFFFFFFFFFFFFFFFFFFFF SWAP1 SWAP2 AND PUSH1 0x0 SWAP1 DUP2 MSTORE PUSH1 0x5 PUSH1 0x20 MSTORE PUSH1 0x40 SWAP1 KECCAK256 SSTORE JUMP JUMPDEST PUSH1 0x3 PUSH1 0x20 MSTORE PUSH1 0x0 SWAP1 DUP2 MSTORE PUSH1 0x40 SWAP1 KECCAK256 SLOAD PUSH20 0xFFFFFFFFFFFFFFFFFFFFFFFFFFFFFFFFFFFFFFFF AND DUP2 JUMP JUMPDEST PUSH1 0x5 PUSH1 0x20 MSTORE PUSH1 0x0 SWAP1 DUP2 MSTORE PUSH1 0x40 SWAP1 KECCAK256 SLOAD DUP2 JUMP JUMPDEST PUSH1 0x0 DUP1 PUSH1 0x0 DUP5 PUSH20 0xFFFFFFFFFFFFFFFFFFFFFFFFFFFFFFFFFFFFFFFF AND PUSH4 0x902F1AC PUSH1 0x40 MLOAD DUP2 PUSH4 0xFFFFFFFF AND PUSH1 0xE0 SHL DUP2 MSTORE PUSH1 0x4 ADD PUSH1 0x60 PUSH1 0x40 MLOAD DUP1 DUP4 SUB DUP2 DUP7 DUP1 EXTCODESIZE ISZERO DUP1 ISZERO PUSH2 0x1572 JUMPI PUSH1 0x0 DUP1 REVERT JUMPDEST POP GAS STATICCALL ISZERO DUP1 ISZERO PUSH2 0x1586 JUMPI RETURNDATASIZE PUSH1 0x0 DUP1 RETURNDATACOPY RETURNDATASIZE PUSH1 0x0 REVERT JUMPDEST POP POP POP POP PUSH1 0x40 MLOAD RETURNDATASIZE PUSH1 0x60 DUP2 LT ISZERO PUSH2 0x159C JUMPI PUSH1 0x0 DUP1 REVERT JUMPDEST POP DUP1 MLOAD PUSH1 0x20 SWAP1 SWAP2 ADD MLOAD SWAP1 SWAP3 POP SWAP1 POP DUP4 ISZERO PUSH2 0x15E4 JUMPI DUP2 PUSH2 0x15C0 JUMPI PUSH1 0x0 SWAP3 POP POP POP PUSH2 0x12AA JUMP JUMPDEST PUSH2 0x15DB DUP3 PUSH2 0xAA6 DUP4 PUSH13 0xC9F2C9CD04674EDEA40000000 PUSH2 0x1987 JUMP JUMPDEST SWAP3 POP POP POP PUSH2 0x12AA JUMP JUMPDEST DUP1 PUSH2 0x15F4 JUMPI PUSH1 0x0 SWAP3 POP POP POP PUSH2 0x12AA JUMP JUMPDEST PUSH2 0x160F DUP2 PUSH2 0xAA6 DUP5 PUSH13 0xC9F2C9CD04674EDEA40000000 PUSH2 0x1987 JUMP JUMPDEST SWAP6 SWAP5 POP POP POP POP POP JUMP JUMPDEST PUSH1 0x0 DUP1 PUSH2 0x1624 DUP6 PUSH2 0x1748 JUMP JUMPDEST SWAP1 POP DUP1 PUSH2 0x1634 JUMPI DUP3 SWAP2 POP POP PUSH2 0xD3C JUMP JUMPDEST PUSH1 0x0 DUP4 DUP3 GT PUSH2 0x164C JUMPI PUSH2 0x1647 DUP5 DUP4 PUSH2 0x19BD JUMP JUMPDEST PUSH2 0x1656 JUMP JUMPDEST PUSH2 0x1656 DUP3 DUP6 PUSH2 0x19BD JUMP JUMPDEST PUSH1 0x0 SLOAD SWAP1 SWAP2 POP PUSH2 0x1674 SWAP1 DUP6 SWAP1 PUSH6 0x10000000000 SWAP1 DIV PUSH2 0xFFFF AND PUSH2 0x1987 JUMP JUMPDEST PUSH2 0x1680 DUP3 PUSH2 0x2710 PUSH2 0x1987 JUMP JUMPDEST LT ISZERO PUSH2 0x16AA JUMPI PUSH1 0x0 SLOAD PUSH4 0x1000000 SWAP1 DIV PUSH1 0xFF AND ISZERO PUSH2 0x16A2 JUMPI DUP4 SWAP3 POP POP POP PUSH2 0xD3C JUMP JUMPDEST POP SWAP1 POP PUSH2 0xD3C JUMP JUMPDEST DUP5 DUP1 ISZERO PUSH2 0x16B6 JUMPI POP DUP4 DUP3 GT JUMPDEST ISZERO PUSH2 0x16C3 JUMPI POP SWAP1 POP PUSH2 0xD3C JUMP JUMPDEST DUP5 ISZERO DUP1 ISZERO PUSH2 0x16D0 JUMPI POP DUP4 DUP3 LT JUMPDEST ISZERO PUSH2 0x16DD JUMPI POP SWAP1 POP PUSH2 0xD3C JUMP JUMPDEST POP SWAP2 SWAP5 SWAP4 POP POP POP POP JUMP JUMPDEST PUSH2 0xE10 DUP2 JUMP JUMPDEST PUSH2 0x16F5 PUSH2 0x191A JUMP JUMPDEST PUSH1 0x0 DUP1 SLOAD PUSH2 0xFFFF SWAP1 SWAP3 AND PUSH6 0x10000000000 MUL PUSH32 0xFFFFFFFFFFFFFFFFFFFFFFFFFFFFFFFFFFFFFFFFFFFFFFFFFF0000FFFFFFFFFF SWAP1 SWAP3 AND SWAP2 SWAP1 SWAP2 OR SWAP1 SSTORE JUMP JUMPDEST PUSH1 0x6 PUSH1 0x20 MSTORE PUSH1 0x0 SWAP1 DUP2 MSTORE PUSH1 0x40 SWAP1 KECCAK256 SLOAD PUSH1 0xFF AND DUP2 JUMP JUMPDEST POP PUSH1 0x0 SWAP1 JUMP JUMPDEST PUSH32 0x0 SWAP1 JUMP JUMPDEST PUSH1 0x4 PUSH1 0x20 MSTORE PUSH1 0x0 SWAP1 DUP2 MSTORE PUSH1 0x40 SWAP1 KECCAK256 SLOAD DUP2 JUMP JUMPDEST PUSH2 0x178C PUSH2 0x191A JUMP JUMPDEST PUSH20 0xFFFFFFFFFFFFFFFFFFFFFFFFFFFFFFFFFFFFFFFF DUP4 AND PUSH1 0x0 SWAP1 DUP2 MSTORE PUSH1 0x9 PUSH1 0x20 MSTORE PUSH1 0x40 SWAP1 KECCAK256 SLOAD PUSH2 0x17CD SWAP1 TIMESTAMP SWAP1 PUSH2 0x17C4 SWAP1 PUSH2 0x1C20 PUSH2 0x1975 JUMP JUMPDEST LT PUSH2 0x296E PUSH2 0x1963 JUMP JUMPDEST PUSH2 0x17DD PUSH1 0x14 DUP3 GT ISZERO PUSH2 0x2969 PUSH2 0x1963 JUMP JUMPDEST PUSH20 0xFFFFFFFFFFFFFFFFFFFFFFFFFFFFFFFFFFFFFFFF SWAP3 SWAP1 SWAP3 AND PUSH1 0x0 SWAP1 DUP2 MSTORE PUSH1 0x8 PUSH1 0x20 SWAP1 DUP2 MSTORE PUSH1 0x40 DUP1 DUP4 KECCAK256 DUP1 SLOAD PUSH32 0xFFFFFFFFFFFFFFFFFFFFFFFFFFFFFFFFFFFFFFFFFFFFFFFFFFFFFFFFFFFFFF00 AND SWAP5 ISZERO ISZERO SWAP5 SWAP1 SWAP5 OR SWAP1 SWAP4 SSTORE PUSH1 0x7 DUP2 MSTORE DUP3 DUP3 KECCAK256 SWAP4 SWAP1 SWAP4 SSTORE PUSH1 0x9 SWAP1 SWAP3 MSTORE SWAP1 KECCAK256 TIMESTAMP SWAP1 SSTORE JUMP JUMPDEST PUSH2 0x1854 PUSH2 0x191A JUMP JUMPDEST PUSH1 0x1 DUP1 SLOAD PUSH32 0xFFFFFFFFFFFFFFFFFFFFFFFF0000000000000000000000000000000000000000 AND PUSH20 0xFFFFFFFFFFFFFFFFFFFFFFFFFFFFFFFFFFFFFFFF SWAP3 SWAP1 SWAP3 AND SWAP2 SWAP1 SWAP2 OR SWAP1 SSTORE JUMP JUMPDEST PUSH2 0x18A3 PUSH2 0x191A JUMP JUMPDEST PUSH1 0x0 DUP1 SLOAD SWAP2 ISZERO ISZERO PUSH2 0x100 MUL PUSH32 0xFFFFFFFFFFFFFFFFFFFFFFFFFFFFFFFFFFFFFFFFFFFFFFFFFFFFFFFFFFFF00FF SWAP1 SWAP3 AND SWAP2 SWAP1 SWAP2 OR SWAP1 SSTORE JUMP JUMPDEST PUSH2 0x18E2 PUSH2 0x191A JUMP JUMPDEST PUSH1 0x0 DUP1 SLOAD SWAP2 ISZERO ISZERO PUSH3 0x10000 MUL PUSH32 0xFFFFFFFFFFFFFFFFFFFFFFFFFFFFFFFFFFFFFFFFFFFFFFFFFFFFFFFFFF00FFFF SWAP1 SWAP3 AND SWAP2 SWAP1 SWAP2 OR SWAP1 SSTORE JUMP JUMPDEST PUSH1 0x0 PUSH2 0x1949 PUSH1 0x0 CALLDATALOAD PUSH32 0xFFFFFFFF00000000000000000000000000000000000000000000000000000000 AND PUSH2 0x1391 JUMP JUMPDEST SWAP1 POP PUSH2 0x1960 PUSH2 0x1958 DUP3 CALLER PUSH2 0x1A66 JUMP JUMPDEST PUSH2 0x191 PUSH2 0x1B2F JUMP JUMPDEST POP JUMP JUMPDEST DUP2 PUSH2 0x1971 JUMPI PUSH2 0x1971 DUP2 PUSH2 0x19CB JUMP JUMPDEST POP POP JUMP JUMPDEST PUSH1 0x0 DUP3 DUP3 ADD PUSH2 0xD3C DUP5 DUP3 LT ISZERO DUP4 PUSH2 0x1B2F JUMP JUMPDEST PUSH1 0x0 DUP3 PUSH2 0x1996 JUMPI POP PUSH1 0x0 PUSH2 0x12AA JUMP JUMPDEST DUP3 DUP3 MUL PUSH2 0xD3C DUP4 DUP6 DUP4 DUP2 PUSH2 0x19A6 JUMPI INVALID JUMPDEST DIV EQ PUSH1 0x3 PUSH2 0x1B2F JUMP JUMPDEST PUSH1 0x0 PUSH2 0xD3C DUP4 DUP4 PUSH1 0x4 PUSH2 0x1B3D JUMP JUMPDEST PUSH1 0x0 PUSH2 0xD3C DUP4 DUP4 PUSH1 0x1 PUSH2 0x1B61 JUMP JUMPDEST PUSH1 0x30 PUSH1 0xA DUP3 MOD ADD PUSH1 0xA DUP3 DIV SWAP2 POP PUSH1 0x30 PUSH1 0xA DUP4 MOD ADD PUSH1 0xA DUP4 DIV SWAP3 POP PUSH1 0x30 PUSH1 0xA DUP5 MOD ADD PUSH1 0xA DUP5 DIV SWAP4 POP PUSH1 0x30 PUSH1 0xA DUP6 MOD ADD PUSH1 0xA DUP6 DIV SWAP5 POP PUSH1 0x30 PUSH1 0xA DUP7 MOD ADD DUP1 PUSH1 0x20 SHL DUP3 PUSH1 0x18 SHL DUP5 PUSH1 0x10 SHL DUP7 PUSH1 0x8 SHL DUP9 ADD ADD ADD ADD PUSH7 0x4B594F23000000 ADD PUSH1 0xB8 SHL SWAP5 POP POP POP POP POP PUSH32 0x8C379A000000000000000000000000000000000000000000000000000000000 PUSH1 0x0 MSTORE PUSH1 0x20 PUSH1 0x4 MSTORE PUSH1 0x9 PUSH1 0x24 MSTORE DUP1 PUSH1 0x44 MSTORE POP PUSH1 0x64 PUSH1 0x0 REVERT JUMPDEST PUSH1 0x0 PUSH2 0x1A70 PUSH2 0x1B77 JUMP JUMPDEST PUSH20 0xFFFFFFFFFFFFFFFFFFFFFFFFFFFFFFFFFFFFFFFF AND PUSH4 0x9BE2A884 DUP5 DUP5 ADDRESS PUSH1 0x40 MLOAD DUP5 PUSH4 0xFFFFFFFF AND PUSH1 0xE0 SHL DUP2 MSTORE PUSH1 0x4 ADD DUP1 DUP5 DUP2 MSTORE PUSH1 0x20 ADD DUP4 PUSH20 0xFFFFFFFFFFFFFFFFFFFFFFFFFFFFFFFFFFFFFFFF AND DUP2 MSTORE PUSH1 0x20 ADD DUP3 PUSH20 0xFFFFFFFFFFFFFFFFFFFFFFFFFFFFFFFFFFFFFFFF AND DUP2 MSTORE PUSH1 0x20 ADD SWAP4 POP POP POP POP PUSH1 0x20 PUSH1 0x40 MLOAD DUP1 DUP4 SUB DUP2 DUP7 DUP1 EXTCODESIZE ISZERO DUP1 ISZERO PUSH2 0x1AFC JUMPI PUSH1 0x0 DUP1 REVERT JUMPDEST POP GAS STATICCALL ISZERO DUP1 ISZERO PUSH2 0x1B10 JUMPI RETURNDATASIZE PUSH1 0x0 DUP1 RETURNDATACOPY RETURNDATASIZE PUSH1 0x0 REVERT JUMPDEST POP POP POP POP PUSH1 0x40 MLOAD RETURNDATASIZE PUSH1 0x20 DUP2 LT ISZERO PUSH2 0x1B26 JUMPI PUSH1 0x0 DUP1 REVERT JUMPDEST POP MLOAD SWAP4 SWAP3 POP POP POP JUMP JUMPDEST DUP2 PUSH2 0x1971 JUMPI PUSH2 0x1971 DUP2 PUSH2 0x1BF7 JUMP JUMPDEST PUSH1 0x0 PUSH2 0x1B4C PUSH1 0x0 DUP5 GT DUP4 PUSH2 0x1B2F JUMP JUMPDEST PUSH1 0x0 DUP4 DUP6 DUP2 PUSH2 0x1B57 JUMPI INVALID JUMPDEST DIV SWAP6 SWAP5 POP POP POP POP POP JUMP JUMPDEST PUSH1 0x0 PUSH2 0x1B70 DUP5 DUP5 GT ISZERO DUP4 PUSH2 0x1B2F JUMP JUMPDEST POP POP SWAP1 SUB SWAP1 JUMP JUMPDEST PUSH1 0x0 PUSH2 0x1B81 PUSH2 0x174E JUMP JUMPDEST PUSH20 0xFFFFFFFFFFFFFFFFFFFFFFFFFFFFFFFFFFFFFFFF AND PUSH4 0xAAABADC5 PUSH1 0x40 MLOAD DUP2 PUSH4 0xFFFFFFFF AND PUSH1 0xE0 SHL DUP2 MSTORE PUSH1 0x4 ADD PUSH1 0x20 PUSH1 0x40 MLOAD DUP1 DUP4 SUB DUP2 DUP7 DUP1 EXTCODESIZE ISZERO DUP1 ISZERO PUSH2 0x1BC6 JUMPI PUSH1 0x0 DUP1 REVERT JUMPDEST POP GAS STATICCALL ISZERO DUP1 ISZERO PUSH2 0x1BDA JUMPI RETURNDATASIZE PUSH1 0x0 DUP1 RETURNDATACOPY RETURNDATASIZE PUSH1 0x0 REVERT JUMPDEST POP POP POP POP PUSH1 0x40 MLOAD RETURNDATASIZE PUSH1 0x20 DUP2 LT ISZERO PUSH2 0x1BF0 JUMPI PUSH1 0x0 DUP1 REVERT JUMPDEST POP MLOAD SWAP1 POP SWAP1 JUMP JUMPDEST PUSH32 0x8C379A000000000000000000000000000000000000000000000000000000000 PUSH1 0x0 SWAP1 DUP2 MSTORE PUSH1 0x20 PUSH1 0x4 MSTORE PUSH1 0x7 PUSH1 0x24 MSTORE PUSH7 0x42414C23000030 PUSH1 0xA DUP1 DUP5 DIV DUP2 DUP2 MOD PUSH1 0x30 SWAP1 DUP2 ADD PUSH1 0x8 SHL SWAP6 DUP4 SWAP1 MOD SWAP6 SWAP1 SWAP6 ADD SWAP1 DUP3 SWAP1 DIV SWAP2 DUP3 MOD SWAP1 SWAP5 ADD PUSH1 0x10 SHL SWAP4 SWAP1 SWAP4 ADD ADD PUSH1 0xC8 SHL PUSH1 0x44 MSTORE PUSH1 0x64 SWAP1 REVERT INVALID LOG2 PUSH5 0x6970667358 0x22 SLT KECCAK256 SWAP4 0xCA PUSH13 0x6CC3ACEC74FF8E6F9B75667B23 0x5E SELFDESTRUCT 0xB2 0x29 0xC0 0xBC RETURNDATACOPY 0xEF 0xBF 0xF6 0xAF 0xC2 GT PUSH23 0x199B64736F6C6343000706003300000000000000000000 "
        },
        "methodIdentifiers": {
          "BASIS_POINTS_DIVISOR()": "126082cf",
          "CHAINLINK_SEQUENCER_GRACE_PERIOD_TIME()": "b40ebd09",
          "MAX_ADJUSTMENT_BASIS_POINTS()": "4a4b1f4f",
          "MAX_ADJUSTMENT_INTERVAL()": "9b18dc47",
          "MAX_SPREAD_BASIS_POINTS()": "0957aed9",
          "ONE_USD()": "67781c0e",
          "PRICE_PRECISION()": "95082d25",
          "adjustmentBasisPoints(address)": "48cac277",
          "chainlinkSequencesStatusOracle()": "6eec7779",
          "getActionId(bytes4)": "851c1bb3",
          "getAmmPrice(address)": "c2138d8c",
          "getAmmPriceV2(address,bool,uint256)": "b02a2de4",
          "getExchangeVault()": "c78f3d0a",
          "getPairPrice(address,bool)": "a2ad7b93",
          "getPrice(address,bool,bool,bool)": "2fc3a70a",
          "getPriceV1(address,bool,bool)": "3d949c5f",
          "getPriceV2(address,bool,bool)": "732391b4",
          "getPrimaryPrice(address,bool)": "56c8c2c1",
          "getSecondaryPrice(address,uint256,bool)": "3eba8d36",
          "isAdjustmentAdditive(address)": "6ce8a44b",
          "lastAdjustmentTimings(address)": "717cfe7a",
          "priceDecimals(address)": "cefe0f21",
          "priceFeeds(address)": "9dcb511a",
          "secondaryPriceFeed()": "8b86616c",
          "setAdjustment(address,bool,uint256)": "d694376c",
          "setChainlinkSequencesStatusOracle(address)": "d9b0dd2c",
          "setFavorPrimaryPrice(bool)": "604f37e9",
          "setIsAmmEnabled(bool)": "9917dc74",
          "setIsSecondaryPriceEnabled(bool)": "eb1c92a9",
          "setMaxStrictPriceDeviation(uint256)": "2fbfe3d3",
          "setPriceSampleSpace(uint256)": "2fa03b8f",
          "setSecondaryPriceFeed(address)": "9a0a6635",
          "setSpreadBasisPoints(address,uint256)": "9b889380",
          "setSpreadThresholdBasisPoints(uint256)": "b731dd87",
          "setTokenConfig(address,address,uint256,bool)": "4b9ade47",
          "setUseV2Pricing(bool)": "fd34ec40",
          "slot0()": "3850c7bd",
          "spreadBasisPoints(address)": "a27ea386",
          "strictStableTokens(address)": "b8f61105"
        }
      }
    }
  }
}